{
  "contractName": "High_low_2",
  "abi": [
    {
      "constant": true,
      "inputs": [
        {
          "name": "",
          "type": "uint256"
        }
      ],
      "name": "bet_creator",
      "outputs": [
        {
          "name": "",
          "type": "address"
        }
      ],
      "payable": false,
      "stateMutability": "view",
      "type": "function"
    },
    {
      "constant": true,
      "inputs": [
        {
          "name": "",
          "type": "uint256"
        }
      ],
      "name": "bet_status_map",
      "outputs": [
        {
          "name": "is_bet_stopped",
          "type": "bool"
        },
        {
          "name": "is_result_published",
          "type": "bool"
        },
        {
          "name": "final_option",
          "type": "uint256"
        }
      ],
      "payable": false,
      "stateMutability": "view",
      "type": "function"
    },
    {
      "constant": true,
      "inputs": [
        {
          "name": "",
          "type": "address"
        },
        {
          "name": "",
          "type": "uint256"
        }
      ],
      "name": "bet_details_map",
      "outputs": [
        {
          "name": "bet_id",
          "type": "uint256"
        },
        {
          "name": "team_1",
          "type": "string"
        },
        {
          "name": "team_2",
          "type": "string"
        },
        {
          "name": "team_selecetd",
          "type": "bool"
        },
        {
          "name": "start_time",
          "type": "uint256"
        },
        {
          "name": "expiry_time",
          "type": "uint256"
        },
        {
          "name": "result",
          "type": "uint256"
        }
      ],
      "payable": false,
      "stateMutability": "view",
      "type": "function"
    },
    {
      "constant": true,
      "inputs": [
        {
          "name": "",
          "type": "address"
        },
        {
          "name": "",
          "type": "uint256"
        }
      ],
      "name": "better_betted_bets",
      "outputs": [
        {
          "name": "",
          "type": "uint256"
        }
      ],
      "payable": false,
      "stateMutability": "view",
      "type": "function"
    },
    {
      "constant": true,
      "inputs": [
        {
          "name": "",
          "type": "uint256"
        }
      ],
      "name": "low_betters",
      "outputs": [
        {
          "name": "",
          "type": "uint256"
        }
      ],
      "payable": false,
      "stateMutability": "view",
      "type": "function"
    },
    {
      "constant": true,
      "inputs": [
        {
          "name": "",
          "type": "uint256"
        }
      ],
      "name": "high_betters",
      "outputs": [
        {
          "name": "",
          "type": "uint256"
        }
      ],
      "payable": false,
      "stateMutability": "view",
      "type": "function"
    },
    {
      "constant": true,
      "inputs": [
        {
          "name": "",
          "type": "uint256"
        }
      ],
      "name": "bet_tokens_for_low",
      "outputs": [
        {
          "name": "",
          "type": "uint256"
        }
      ],
      "payable": false,
      "stateMutability": "view",
      "type": "function"
    },
    {
      "constant": true,
      "inputs": [
        {
          "name": "",
          "type": "uint256"
        }
      ],
      "name": "broker_addresses",
      "outputs": [
        {
          "name": "",
          "type": "address"
        }
      ],
      "payable": false,
      "stateMutability": "view",
      "type": "function"
    },
    {
      "constant": true,
      "inputs": [
        {
          "name": "",
          "type": "uint256"
        },
        {
          "name": "",
          "type": "uint256"
        }
      ],
      "name": "betters_of_bet_id",
      "outputs": [
        {
          "name": "",
          "type": "address"
        }
      ],
      "payable": false,
      "stateMutability": "view",
      "type": "function"
    },
    {
      "constant": true,
      "inputs": [
        {
          "name": "",
          "type": "uint256"
        }
      ],
      "name": "bet_tokens_for_high",
      "outputs": [
        {
          "name": "",
          "type": "uint256"
        }
      ],
      "payable": false,
      "stateMutability": "view",
      "type": "function"
    },
    {
      "constant": true,
      "inputs": [
        {
          "name": "",
          "type": "uint256"
        }
      ],
      "name": "index_of_broker_bet",
      "outputs": [
        {
          "name": "",
          "type": "uint256"
        }
      ],
      "payable": false,
      "stateMutability": "view",
      "type": "function"
    },
    {
      "constant": true,
      "inputs": [
        {
          "name": "",
          "type": "address"
        }
      ],
      "name": "is_better",
      "outputs": [
        {
          "name": "",
          "type": "bool"
        }
      ],
      "payable": false,
      "stateMutability": "view",
      "type": "function"
    },
    {
      "constant": true,
      "inputs": [
        {
          "name": "",
          "type": "address"
        }
      ],
      "name": "broker_created_bets",
      "outputs": [
        {
          "name": "",
          "type": "uint256"
        }
      ],
      "payable": false,
      "stateMutability": "view",
      "type": "function"
    },
    {
      "constant": true,
      "inputs": [
        {
          "name": "",
          "type": "address"
        },
        {
          "name": "",
          "type": "uint256"
        }
      ],
      "name": "game_id_map_better",
      "outputs": [
        {
          "name": "option",
          "type": "bool"
        },
        {
          "name": "betted_tokens",
          "type": "uint256"
        },
        {
          "name": "tokens_won",
          "type": "uint256"
        }
      ],
      "payable": false,
      "stateMutability": "view",
      "type": "function"
    },
    {
      "constant": true,
      "inputs": [
        {
          "name": "",
          "type": "address"
        }
      ],
      "name": "is_broker",
      "outputs": [
        {
          "name": "",
          "type": "bool"
        }
      ],
      "payable": false,
      "stateMutability": "view",
      "type": "function"
    },
    {
      "constant": true,
      "inputs": [],
      "name": "_bet_id",
      "outputs": [
        {
          "name": "",
          "type": "uint256"
        }
      ],
      "payable": false,
      "stateMutability": "view",
      "type": "function"
    },
    {
      "inputs": [
        {
          "name": "_token_address",
          "type": "address"
        }
      ],
      "payable": true,
      "stateMutability": "payable",
      "type": "constructor"
    },
    {
      "anonymous": false,
      "inputs": [
        {
          "indexed": false,
          "name": "_sender",
          "type": "address"
        },
        {
          "indexed": false,
          "name": "_receiver",
          "type": "address"
        },
        {
          "indexed": false,
          "name": "_transfer_amount",
          "type": "uint256"
        }
      ],
      "name": "Transfer_amount",
      "type": "event"
    },
    {
      "constant": false,
      "inputs": [],
      "name": "buy_token",
      "outputs": [
        {
          "name": "",
          "type": "bool"
        }
      ],
      "payable": true,
      "stateMutability": "payable",
      "type": "function"
    },
    {
      "constant": false,
      "inputs": [
        {
          "name": "tokens_to_exchange_in_wei",
          "type": "uint256"
        }
      ],
      "name": "exchange_token",
      "outputs": [
        {
          "name": "",
          "type": "bool"
        }
      ],
      "payable": true,
      "stateMutability": "payable",
      "type": "function"
    },
    {
      "constant": true,
      "inputs": [],
      "name": "account_token_balance",
      "outputs": [
        {
          "name": "",
          "type": "uint256"
        }
      ],
      "payable": false,
      "stateMutability": "view",
      "type": "function"
    },
    {
      "constant": true,
      "inputs": [],
      "name": "contract_ether_balance",
      "outputs": [
        {
          "name": "",
          "type": "uint256"
        }
      ],
      "payable": false,
      "stateMutability": "view",
      "type": "function"
    },
    {
      "constant": true,
      "inputs": [],
      "name": "contract_token_balance",
      "outputs": [
        {
          "name": "",
          "type": "uint256"
        }
      ],
      "payable": false,
      "stateMutability": "view",
      "type": "function"
    },
    {
      "constant": false,
      "inputs": [],
      "name": "add_broker",
      "outputs": [
        {
          "name": "",
          "type": "bool"
        }
      ],
      "payable": true,
      "stateMutability": "payable",
      "type": "function"
    },
    {
      "constant": true,
      "inputs": [],
      "name": "check_broker",
      "outputs": [
        {
          "name": "",
          "type": "bool"
        }
      ],
      "payable": false,
      "stateMutability": "view",
      "type": "function"
    },
    {
      "constant": true,
      "inputs": [],
      "name": "length_of_broker_addresses",
      "outputs": [
        {
          "name": "",
          "type": "uint256"
        }
      ],
      "payable": false,
      "stateMutability": "view",
      "type": "function"
    },
    {
      "constant": true,
      "inputs": [
        {
          "name": "index",
          "type": "uint256"
        }
      ],
      "name": "get_broker_address",
      "outputs": [
        {
          "name": "",
          "type": "address"
        }
      ],
      "payable": false,
      "stateMutability": "view",
      "type": "function"
    },
    {
      "constant": true,
      "inputs": [],
      "name": "check_better",
      "outputs": [
        {
          "name": "",
          "type": "bool"
        }
      ],
      "payable": false,
      "stateMutability": "view",
      "type": "function"
    },
    {
      "constant": false,
      "inputs": [
        {
          "name": "_team_1",
          "type": "string"
        },
        {
          "name": "_team_2",
          "type": "string"
        },
        {
          "name": "_team_selecetd",
          "type": "bool"
        },
        {
          "name": "_start_time",
          "type": "uint256"
        },
        {
          "name": "_expiry_time",
          "type": "uint256"
        }
      ],
      "name": "broker_set_game",
      "outputs": [
        {
          "name": "",
          "type": "bool"
        }
      ],
      "payable": true,
      "stateMutability": "payable",
      "type": "function"
    },
    {
      "constant": false,
      "inputs": [
        {
          "name": "bet_id",
          "type": "uint256"
        },
        {
          "name": "_choice",
          "type": "uint256"
        },
        {
          "name": "_bet_tokens_in_wei",
          "type": "uint256"
        }
      ],
      "name": "betting",
      "outputs": [
        {
          "name": "",
          "type": "bool"
        }
      ],
      "payable": true,
      "stateMutability": "payable",
      "type": "function"
    },
    {
      "constant": false,
      "inputs": [
        {
          "name": "bet_id",
          "type": "uint256"
        }
      ],
      "name": "broker_stop_bet",
      "outputs": [
        {
          "name": "",
          "type": "bool"
        }
      ],
      "payable": true,
      "stateMutability": "payable",
      "type": "function"
    },
    {
      "constant": false,
      "inputs": [
        {
          "name": "bet_id",
          "type": "uint256"
        },
        {
          "name": "_increase_tokens_in_wei",
          "type": "uint256"
        }
      ],
      "name": "better_increase_bet_tokens",
      "outputs": [
        {
          "name": "",
          "type": "bool"
        }
      ],
      "payable": true,
      "stateMutability": "payable",
      "type": "function"
    },
    {
      "constant": false,
      "inputs": [
        {
          "name": "bet_id",
          "type": "uint256"
        }
      ],
      "name": "better_exit_bet",
      "outputs": [
        {
          "name": "",
          "type": "bool"
        }
      ],
      "payable": true,
      "stateMutability": "payable",
      "type": "function"
    },
    {
      "constant": false,
      "inputs": [
        {
          "name": "bet_id",
          "type": "uint256"
        },
        {
          "name": "result_options",
          "type": "uint256"
        }
      ],
      "name": "broker_setting_result_and_distribute_money",
      "outputs": [
        {
          "name": "",
          "type": "bool"
        }
      ],
      "payable": true,
      "stateMutability": "payable",
      "type": "function"
    }
  ],
  "bytecode": "0x606060405260405160208061415d83398101604052808051906020019091905050806000806101000a81548173ffffffffffffffffffffffffffffffffffffffff021916908373ffffffffffffffffffffffffffffffffffffffff160217905550506140ed806100706000396000f300606060405260043610610195576000357c0100000000000000000000000000000000000000000000000000000000900463ffffffff168062ada0f21461019a57806311761ed2146101fd57806316dcd4cc1461021f578063182d79571461024c5780631ddaa15b14610299578063388424fc146102d257806339472f691461045a57806339d200e1146104b057806340721d1b146104e757806342950e641461051e578063531ba6a61461054757806357720d4a1461057057806361d3a8d71461059957806363b0e93b146105d05780637028403e14610633578063760c883c1461069f57806379842436146106cc5780637cc75c3d146106fc57806381c77736146107335780638328bb4f1461076c57806383d8cfc0146107ae5780639682f177146107d057806398e8c09514610800578063ab13610014610837578063afb06dc314610888578063bc9b159b146108d5578063d55964ad146108fe578063e098849614610966578063e2605e53146109c9578063e98ba0c714610a1a578063ed23f5f414610a43578063faadb0ff14610a73575b600080fd5b34156101a557600080fd5b6101bb6004808035906020019091905050610b3d565b604051808273ffffffffffffffffffffffffffffffffffffffff1673ffffffffffffffffffffffffffffffffffffffff16815260200191505060405180910390f35b610205610b70565b604051808215151515815260200191505060405180910390f35b341561022a57600080fd5b610232610c5e565b604051808215151515815260200191505060405180910390f35b341561025757600080fd5b61026d6004808035906020019091905050610cb2565b604051808415151515815260200183151515158152602001828152602001935050505060405180910390f35b6102b86004808035906020019091908035906020019091905050610cf6565b604051808215151515815260200191505060405180910390f35b34156102dd57600080fd5b610312600480803573ffffffffffffffffffffffffffffffffffffffff169060200190919080359060200190919050506111f7565b604051808881526020018060200180602001871515151581526020018681526020018581526020018481526020018381038352898181546001816001161561010002031660029004815260200191508054600181600116156101000203166002900480156103c15780601f10610396576101008083540402835291602001916103c1565b820191906000526020600020905b8154815290600101906020018083116103a457829003601f168201915b50508381038252888181546001816001161561010002031660029004815260200191508054600181600116156101000203166002900480156104445780601f1061041957610100808354040283529160200191610444565b820191906000526020600020905b81548152906001019060200180831161042757829003601f168201915b5050995050505050505050505060405180910390f35b341561046557600080fd5b61049a600480803573ffffffffffffffffffffffffffffffffffffffff16906020019091908035906020019091905050611251565b6040518082815260200191505060405180910390f35b34156104bb57600080fd5b6104d16004808035906020019091905050611282565b6040518082815260200191505060405180910390f35b34156104f257600080fd5b610508600480803590602001909190505061129a565b6040518082815260200191505060405180910390f35b341561052957600080fd5b6105316112b2565b6040518082815260200191505060405180910390f35b341561055257600080fd5b61055a611398565b6040518082815260200191505060405180910390f35b341561057b57600080fd5b61058361149f565b6040518082815260200191505060405180910390f35b34156105a457600080fd5b6105ba60048080359060200190919050506114be565b6040518082815260200191505060405180910390f35b34156105db57600080fd5b6105f160048080359060200190919050506114d6565b604051808273ffffffffffffffffffffffffffffffffffffffff1673ffffffffffffffffffffffffffffffffffffffff16815260200191505060405180910390f35b341561063e57600080fd5b61065d6004808035906020019091908035906020019091905050611515565b604051808273ffffffffffffffffffffffffffffffffffffffff1673ffffffffffffffffffffffffffffffffffffffff16815260200191505060405180910390f35b34156106aa57600080fd5b6106b2611563565b604051808215151515815260200191505060405180910390f35b6106e260048080359060200190919050506115b7565b604051808215151515815260200191505060405180910390f35b341561070757600080fd5b61071d60048080359060200190919050506118d3565b6040518082815260200191505060405180910390f35b61075260048080359060200190919080359060200190919050506118eb565b604051808215151515815260200191505060405180910390f35b61079460048080359060200190919080359060200190919080359060200190919050506129f0565b604051808215151515815260200191505060405180910390f35b6107b661319c565b604051808215151515815260200191505060405180910390f35b6107e660048080359060200190919050506132e6565b604051808215151515815260200191505060405180910390f35b341561080b57600080fd5b6108216004808035906020019091905050613320565b6040518082815260200191505060405180910390f35b341561084257600080fd5b61086e600480803573ffffffffffffffffffffffffffffffffffffffff16906020019091905050613338565b604051808215151515815260200191505060405180910390f35b341561089357600080fd5b6108bf600480803573ffffffffffffffffffffffffffffffffffffffff16906020019091905050613358565b6040518082815260200191505060405180910390f35b34156108e057600080fd5b6108e8613370565b6040518082815260200191505060405180910390f35b341561090957600080fd5b61093e600480803573ffffffffffffffffffffffffffffffffffffffff1690602001909190803590602001909190505061337d565b6040518084151515158152602001838152602001828152602001935050505060405180910390f35b341561097157600080fd5b61098760048080359060200190919050506133c1565b604051808273ffffffffffffffffffffffffffffffffffffffff1673ffffffffffffffffffffffffffffffffffffffff16815260200191505060405180910390f35b34156109d457600080fd5b610a00600480803573ffffffffffffffffffffffffffffffffffffffff16906020019091905050613405565b604051808215151515815260200191505060405180910390f35b3415610a2557600080fd5b610a2d613425565b6040518082815260200191505060405180910390f35b610a59600480803590602001909190505061342b565b604051808215151515815260200191505060405180910390f35b610b23600480803590602001908201803590602001908080601f0160208091040260200160405190810160405280939291908181526020018383808284378201915050505050509190803590602001908201803590602001908080601f016020809104026020016040519081016040528093929190818152602001838380828437820191505050505050919080351515906020019091908035906020019091908035906020019091905050613a65565b604051808215151515815260200191505060405180910390f35b60086020528060005260406000206000915054906101000a900473ffffffffffffffffffffffffffffffffffffffff1681565b6000610b7a610c5e565b151515610b8657600080fd5b6006610b90613370565b101515610b9c57600080fd5b60028054806001018281610bb09190613fc4565b9160005260206000209001600033909190916101000a81548173ffffffffffffffffffffffffffffffffffffffff021916908373ffffffffffffffffffffffffffffffffffffffff160217905550506001600360003373ffffffffffffffffffffffffffffffffffffffff1673ffffffffffffffffffffffffffffffffffffffff16815260200190815260200160002060006101000a81548160ff0219169083151502179055506001905090565b6000600360003373ffffffffffffffffffffffffffffffffffffffff1673ffffffffffffffffffffffffffffffffffffffff16815260200190815260200160002060009054906101000a900460ff16905090565b60106020528060005260406000206000915090508060000160009054906101000a900460ff16908060000160019054906101000a900460ff16908060010154905083565b600080600960003373ffffffffffffffffffffffffffffffffffffffff1673ffffffffffffffffffffffffffffffffffffffff168152602001908152602001600020600085815260200190815260200160002060010154111515610d5957600080fd5b600015156010600085815260200190815260200160002060000160009054906101000a900460ff161515141515610d8f57600080fd5b42600560006008600087815260200190815260200160002060009054906101000a900473ffffffffffffffffffffffffffffffffffffffff1673ffffffffffffffffffffffffffffffffffffffff1673ffffffffffffffffffffffffffffffffffffffff1681526020019081526020016000206000600660008781526020019081526020016000205481526020019081526020016000206005015410151515610e3757600080fd5b6103e882026000809054906101000a900473ffffffffffffffffffffffffffffffffffffffff1673ffffffffffffffffffffffffffffffffffffffff166370a08231336000604051602001526040518263ffffffff167c0100000000000000000000000000000000000000000000000000000000028152600401808273ffffffffffffffffffffffffffffffffffffffff1673ffffffffffffffffffffffffffffffffffffffff168152602001915050602060405180830381600087803b1515610f0057600080fd5b6102c65a03f11515610f1157600080fd5b5050506040518051905010151515610f2857600080fd5b6000809054906101000a900473ffffffffffffffffffffffffffffffffffffffff1673ffffffffffffffffffffffffffffffffffffffff166323b872dd336000809054906101000a900473ffffffffffffffffffffffffffffffffffffffff166103e886026000604051602001526040518463ffffffff167c0100000000000000000000000000000000000000000000000000000000028152600401808473ffffffffffffffffffffffffffffffffffffffff1673ffffffffffffffffffffffffffffffffffffffff1681526020018373ffffffffffffffffffffffffffffffffffffffff1673ffffffffffffffffffffffffffffffffffffffff1681526020018281526020019350505050602060405180830381600087803b151561104d57600080fd5b6102c65a03f1151561105e57600080fd5b505050604051805190505081600960003373ffffffffffffffffffffffffffffffffffffffff1673ffffffffffffffffffffffffffffffffffffffff16815260200190815260200160002060008581526020019081526020016000206001016000828254019250508190555060001515600960003373ffffffffffffffffffffffffffffffffffffffff1673ffffffffffffffffffffffffffffffffffffffff168152602001908152602001600020600085815260200190815260200160002060000160009054906101000a900460ff161515141561115d5781600c6000858152602001908152602001600020600082825401925050819055506111ed565b60011515600960003373ffffffffffffffffffffffffffffffffffffffff1673ffffffffffffffffffffffffffffffffffffffff168152602001908152602001600020600085815260200190815260200160002060000160009054906101000a900460ff16151514156111ec5781600d6000858152602001908152602001600020600082825401925050819055505b5b6001905092915050565b600560205281600052604060002060205280600052604060002060009150915050806000015490806001019080600201908060030160009054906101000a900460ff16908060040154908060050154908060060154905087565b600b6020528160005260406000208181548110151561126c57fe5b9060005260206000209001600091509150505481565b600e6020528060005260406000206000915090505481565b600f6020528060005260406000206000915090505481565b60008060009054906101000a900473ffffffffffffffffffffffffffffffffffffffff1673ffffffffffffffffffffffffffffffffffffffff166370a08231336000604051602001526040518263ffffffff167c0100000000000000000000000000000000000000000000000000000000028152600401808273ffffffffffffffffffffffffffffffffffffffff1673ffffffffffffffffffffffffffffffffffffffff168152602001915050602060405180830381600087803b151561137857600080fd5b6102c65a03f1151561138957600080fd5b50505060405180519050905090565b60008060009054906101000a900473ffffffffffffffffffffffffffffffffffffffff1673ffffffffffffffffffffffffffffffffffffffff166370a082316000809054906101000a900473ffffffffffffffffffffffffffffffffffffffff166000604051602001526040518263ffffffff167c0100000000000000000000000000000000000000000000000000000000028152600401808273ffffffffffffffffffffffffffffffffffffffff1673ffffffffffffffffffffffffffffffffffffffff168152602001915050602060405180830381600087803b151561147f57600080fd5b6102c65a03f1151561149057600080fd5b50505060405180519050905090565b60003073ffffffffffffffffffffffffffffffffffffffff1631905090565b600c6020528060005260406000206000915090505481565b6002818154811015156114e557fe5b90600052602060002090016000915054906101000a900473ffffffffffffffffffffffffffffffffffffffff1681565b600a6020528160005260406000208181548110151561153057fe5b90600052602060002090016000915091509054906101000a900473ffffffffffffffffffffffffffffffffffffffff1681565b6000600460003373ffffffffffffffffffffffffffffffffffffffff1673ffffffffffffffffffffffffffffffffffffffff16815260200190815260200160002060009054906101000a900460ff16905090565b60006103e882026000809054906101000a900473ffffffffffffffffffffffffffffffffffffffff1673ffffffffffffffffffffffffffffffffffffffff166370a08231336000604051602001526040518263ffffffff167c0100000000000000000000000000000000000000000000000000000000028152600401808273ffffffffffffffffffffffffffffffffffffffff1673ffffffffffffffffffffffffffffffffffffffff168152602001915050602060405180830381600087803b151561168257600080fd5b6102c65a03f1151561169357600080fd5b50505060405180519050101515156116aa57600080fd5b6000809054906101000a900473ffffffffffffffffffffffffffffffffffffffff1673ffffffffffffffffffffffffffffffffffffffff166323b872dd336000809054906101000a900473ffffffffffffffffffffffffffffffffffffffff166103e886026000604051602001526040518463ffffffff167c0100000000000000000000000000000000000000000000000000000000028152600401808473ffffffffffffffffffffffffffffffffffffffff1673ffffffffffffffffffffffffffffffffffffffff1681526020018373ffffffffffffffffffffffffffffffffffffffff1673ffffffffffffffffffffffffffffffffffffffff1681526020018281526020019350505050602060405180830381600087803b15156117cf57600080fd5b6102c65a03f115156117e057600080fd5b50505060405180519050503373ffffffffffffffffffffffffffffffffffffffff166108fc839081150290604051600060405180830381858888f19350505050151561182b57600080fd5b7fd51af916ec27930d708168315bc82401ecf73ab390083b9558a6fb4bba5cb09c303384604051808473ffffffffffffffffffffffffffffffffffffffff1673ffffffffffffffffffffffffffffffffffffffff1681526020018373ffffffffffffffffffffffffffffffffffffffff1673ffffffffffffffffffffffffffffffffffffffff168152602001828152602001935050505060405180910390a160019050919050565b600d6020528060005260406000206000915090505481565b6000803373ffffffffffffffffffffffffffffffffffffffff166008600086815260200190815260200160002060009054906101000a900473ffffffffffffffffffffffffffffffffffffffff1673ffffffffffffffffffffffffffffffffffffffff1614151561195b57600080fd5b42600560006008600088815260200190815260200160002060009054906101000a900473ffffffffffffffffffffffffffffffffffffffff1673ffffffffffffffffffffffffffffffffffffffff1673ffffffffffffffffffffffffffffffffffffffff1681526020019081526020016000206000600660008881526020019081526020016000205481526020019081526020016000206005015410151515611a0357600080fd5b600015156010600086815260200190815260200160002060000160019054906101000a900460ff161515141515611a3957600080fd5b600c8311158015611a4b5750600a8310155b1515611a5657600080fd5b60016010600086815260200190815260200160002060000160016101000a81548160ff021916908315150217905550826010600086815260200190815260200160002060010181905550600a6000858152602001908152602001600020805490509050600c831415611dbe575b6000811115611db557600060096000600a600088815260200190815260200160002060018503815481101515611af557fe5b906000526020600020900160009054906101000a900473ffffffffffffffffffffffffffffffffffffffff1673ffffffffffffffffffffffffffffffffffffffff1673ffffffffffffffffffffffffffffffffffffffff1681526020019081526020016000206000868152602001908152602001600020600101541115611da7576000809054906101000a900473ffffffffffffffffffffffffffffffffffffffff1673ffffffffffffffffffffffffffffffffffffffff166323b872dd6000809054906101000a900473ffffffffffffffffffffffffffffffffffffffff16600a600088815260200190815260200160002060018503815481101515611bf857fe5b906000526020600020900160009054906101000a900473ffffffffffffffffffffffffffffffffffffffff166103e860096000600a60008c815260200190815260200160002060018903815481101515611c4e57fe5b906000526020600020900160009054906101000a900473ffffffffffffffffffffffffffffffffffffffff1673ffffffffffffffffffffffffffffffffffffffff1673ffffffffffffffffffffffffffffffffffffffff16815260200190815260200160002060008a815260200190815260200160002060010154026000604051602001526040518463ffffffff167c0100000000000000000000000000000000000000000000000000000000028152600401808473ffffffffffffffffffffffffffffffffffffffff1673ffffffffffffffffffffffffffffffffffffffff1681526020018373ffffffffffffffffffffffffffffffffffffffff1673ffffffffffffffffffffffffffffffffffffffff1681526020018281526020019350505050602060405180830381600087803b1515611d8a57600080fd5b6102c65a03f11515611d9b57600080fd5b50505060405180519050505b808060019003915050611ac3565b600191506129e9565b600b8314156123d1575b60008111156123c857600060096000600a600088815260200190815260200160002060018503815481101515611dfa57fe5b906000526020600020900160009054906101000a900473ffffffffffffffffffffffffffffffffffffffff1673ffffffffffffffffffffffffffffffffffffffff1673ffffffffffffffffffffffffffffffffffffffff168152602001908152602001600020600086815260200190815260200160002060010154118015611f3457506001151560096000600a600088815260200190815260200160002060018503815481101515611ea857fe5b906000526020600020900160009054906101000a900473ffffffffffffffffffffffffffffffffffffffff1673ffffffffffffffffffffffffffffffffffffffff1673ffffffffffffffffffffffffffffffffffffffff168152602001908152602001600020600086815260200190815260200160002060000160009054906101000a900460ff161515145b156123ba576000809054906101000a900473ffffffffffffffffffffffffffffffffffffffff1673ffffffffffffffffffffffffffffffffffffffff166323b872dd6000809054906101000a900473ffffffffffffffffffffffffffffffffffffffff16600a600088815260200190815260200160002060018503815481101515611fbb57fe5b906000526020600020900160009054906101000a900473ffffffffffffffffffffffffffffffffffffffff16600d600089815260200190815260200160002054600c60008a81526020019081526020016000205460096000600a60008d815260200190815260200160002060018a0381548110151561203657fe5b906000526020600020900160009054906101000a900473ffffffffffffffffffffffffffffffffffffffff1673ffffffffffffffffffffffffffffffffffffffff1673ffffffffffffffffffffffffffffffffffffffff16815260200190815260200160002060008b815260200190815260200160002060010154028115156120bb57fe5b0460096000600a60008c8152602001908152602001600020600189038154811015156120e357fe5b906000526020600020900160009054906101000a900473ffffffffffffffffffffffffffffffffffffffff1673ffffffffffffffffffffffffffffffffffffffff1673ffffffffffffffffffffffffffffffffffffffff16815260200190815260200160002060008a815260200190815260200160002060010154016103e8026000604051602001526040518463ffffffff167c0100000000000000000000000000000000000000000000000000000000028152600401808473ffffffffffffffffffffffffffffffffffffffff1673ffffffffffffffffffffffffffffffffffffffff1681526020018373ffffffffffffffffffffffffffffffffffffffff1673ffffffffffffffffffffffffffffffffffffffff1681526020018281526020019350505050602060405180830381600087803b151561222357600080fd5b6102c65a03f1151561223457600080fd5b5050506040518051905050600d600085815260200190815260200160002054600c60008681526020019081526020016000205460096000600a60008981526020019081526020016000206001860381548110151561228e57fe5b906000526020600020900160009054906101000a900473ffffffffffffffffffffffffffffffffffffffff1673ffffffffffffffffffffffffffffffffffffffff1673ffffffffffffffffffffffffffffffffffffffff1681526020019081526020016000206000878152602001908152602001600020600101540281151561231357fe5b0460096000600a60008881526020019081526020016000206001850381548110151561233b57fe5b906000526020600020900160009054906101000a900473ffffffffffffffffffffffffffffffffffffffff1673ffffffffffffffffffffffffffffffffffffffff1673ffffffffffffffffffffffffffffffffffffffff1681526020019081526020016000206000868152602001908152602001600020600201819055505b808060019003915050611dc8565b600191506129e9565b600a8314156129e4575b60008111156129db57600060096000600a60008881526020019081526020016000206001850381548110151561240d57fe5b906000526020600020900160009054906101000a900473ffffffffffffffffffffffffffffffffffffffff1673ffffffffffffffffffffffffffffffffffffffff1673ffffffffffffffffffffffffffffffffffffffff16815260200190815260200160002060008681526020019081526020016000206001015411801561254757506000151560096000600a6000888152602001908152602001600020600185038154811015156124bb57fe5b906000526020600020900160009054906101000a900473ffffffffffffffffffffffffffffffffffffffff1673ffffffffffffffffffffffffffffffffffffffff1673ffffffffffffffffffffffffffffffffffffffff168152602001908152602001600020600086815260200190815260200160002060000160009054906101000a900460ff161515145b156129cd576000809054906101000a900473ffffffffffffffffffffffffffffffffffffffff1673ffffffffffffffffffffffffffffffffffffffff166323b872dd6000809054906101000a900473ffffffffffffffffffffffffffffffffffffffff16600a6000888152602001908152602001600020600185038154811015156125ce57fe5b906000526020600020900160009054906101000a900473ffffffffffffffffffffffffffffffffffffffff16600c600089815260200190815260200160002054600d60008a81526020019081526020016000205460096000600a60008d815260200190815260200160002060018a0381548110151561264957fe5b906000526020600020900160009054906101000a900473ffffffffffffffffffffffffffffffffffffffff1673ffffffffffffffffffffffffffffffffffffffff1673ffffffffffffffffffffffffffffffffffffffff16815260200190815260200160002060008b815260200190815260200160002060010154028115156126ce57fe5b0460096000600a60008c8152602001908152602001600020600189038154811015156126f657fe5b906000526020600020900160009054906101000a900473ffffffffffffffffffffffffffffffffffffffff1673ffffffffffffffffffffffffffffffffffffffff1673ffffffffffffffffffffffffffffffffffffffff16815260200190815260200160002060008a815260200190815260200160002060010154016103e8026000604051602001526040518463ffffffff167c0100000000000000000000000000000000000000000000000000000000028152600401808473ffffffffffffffffffffffffffffffffffffffff1673ffffffffffffffffffffffffffffffffffffffff1681526020018373ffffffffffffffffffffffffffffffffffffffff1673ffffffffffffffffffffffffffffffffffffffff1681526020018281526020019350505050602060405180830381600087803b151561283657600080fd5b6102c65a03f1151561284757600080fd5b5050506040518051905050600c600085815260200190815260200160002054600d60008681526020019081526020016000205460096000600a6000898152602001908152602001600020600186038154811015156128a157fe5b906000526020600020900160009054906101000a900473ffffffffffffffffffffffffffffffffffffffff1673ffffffffffffffffffffffffffffffffffffffff1673ffffffffffffffffffffffffffffffffffffffff1681526020019081526020016000206000878152602001908152602001600020600101540281151561292657fe5b0460096000600a60008881526020019081526020016000206001850381548110151561294e57fe5b906000526020600020900160009054906101000a900473ffffffffffffffffffffffffffffffffffffffff1673ffffffffffffffffffffffffffffffffffffffff1673ffffffffffffffffffffffffffffffffffffffff1681526020019081526020016000206000868152602001908152602001600020600201819055505b8080600190039150506123db565b600191506129e9565b600191505b5092915050565b60008082111515612a0057600080fd5b6103e882026000809054906101000a900473ffffffffffffffffffffffffffffffffffffffff1673ffffffffffffffffffffffffffffffffffffffff166370a08231336000604051602001526040518263ffffffff167c0100000000000000000000000000000000000000000000000000000000028152600401808273ffffffffffffffffffffffffffffffffffffffff1673ffffffffffffffffffffffffffffffffffffffff168152602001915050602060405180830381600087803b1515612ac957600080fd5b6102c65a03f11515612ada57600080fd5b5050506040518051905010151515612af157600080fd5b42600560006008600088815260200190815260200160002060009054906101000a900473ffffffffffffffffffffffffffffffffffffffff1673ffffffffffffffffffffffffffffffffffffffff1673ffffffffffffffffffffffffffffffffffffffff1681526020019081526020016000206000600660008881526020019081526020016000205481526020019081526020016000206004015411151515612b9957600080fd5b42600560006008600088815260200190815260200160002060009054906101000a900473ffffffffffffffffffffffffffffffffffffffff1673ffffffffffffffffffffffffffffffffffffffff1673ffffffffffffffffffffffffffffffffffffffff1681526020019081526020016000206000600660008881526020019081526020016000205481526020019081526020016000206005015410151515612c4157600080fd5b600015156010600086815260200190815260200160002060000160009054906101000a900460ff161515141515612c7757600080fd5b6000600960003373ffffffffffffffffffffffffffffffffffffffff1673ffffffffffffffffffffffffffffffffffffffff168152602001908152602001600020600086815260200190815260200160002060010154141515612cd957600080fd5b6001831480612ce85750600083145b1515612cf357600080fd5b6000809054906101000a900473ffffffffffffffffffffffffffffffffffffffff1673ffffffffffffffffffffffffffffffffffffffff166323b872dd336000809054906101000a900473ffffffffffffffffffffffffffffffffffffffff166103e886026000604051602001526040518463ffffffff167c0100000000000000000000000000000000000000000000000000000000028152600401808473ffffffffffffffffffffffffffffffffffffffff1673ffffffffffffffffffffffffffffffffffffffff1681526020018373ffffffffffffffffffffffffffffffffffffffff1673ffffffffffffffffffffffffffffffffffffffff1681526020018281526020019350505050602060405180830381600087803b1515612e1857600080fd5b6102c65a03f11515612e2957600080fd5b505050604051805190505081600960003373ffffffffffffffffffffffffffffffffffffffff1673ffffffffffffffffffffffffffffffffffffffff1681526020019081526020016000206000868152602001908152602001600020600101819055506000831415612f4a576000600960003373ffffffffffffffffffffffffffffffffffffffff1673ffffffffffffffffffffffffffffffffffffffff168152602001908152602001600020600086815260200190815260200160002060000160006101000a81548160ff02191690831515021790555081600c600086815260200190815260200160002060008282540192505081905550600e600085815260200190815260200160002060008154809291906001019190505550613005565b6001831415613004576001600960003373ffffffffffffffffffffffffffffffffffffffff1673ffffffffffffffffffffffffffffffffffffffff168152602001908152602001600020600086815260200190815260200160002060000160006101000a81548160ff02191690831515021790555081600d600086815260200190815260200160002060008282540192505081905550600f6000858152602001908152602001600020600081548092919060010191905055505b5b600a6000858152602001908152602001600020805480600101828161302a9190613fc4565b9160005260206000209001600033909190916101000a81548173ffffffffffffffffffffffffffffffffffffffff021916908373ffffffffffffffffffffffffffffffffffffffff16021790555050600b60003373ffffffffffffffffffffffffffffffffffffffff1673ffffffffffffffffffffffffffffffffffffffff16815260200190815260200160002080548060010182816130ca9190613ff0565b91600052602060002090016000869091909150555060001515600460003373ffffffffffffffffffffffffffffffffffffffff1673ffffffffffffffffffffffffffffffffffffffff16815260200190815260200160002060009054906101000a900460ff1615151415613191576001600460003373ffffffffffffffffffffffffffffffffffffffff1673ffffffffffffffffffffffffffffffffffffffff16815260200190815260200160002060006101000a81548160ff0219169083151502179055505b600190509392505050565b60008060009054906101000a900473ffffffffffffffffffffffffffffffffffffffff1673ffffffffffffffffffffffffffffffffffffffff166323b872dd6000809054906101000a900473ffffffffffffffffffffffffffffffffffffffff16336103e834026000604051602001526040518463ffffffff167c0100000000000000000000000000000000000000000000000000000000028152600401808473ffffffffffffffffffffffffffffffffffffffff1673ffffffffffffffffffffffffffffffffffffffff1681526020018373ffffffffffffffffffffffffffffffffffffffff1673ffffffffffffffffffffffffffffffffffffffff1681526020018281526020019350505050602060405180830381600087803b15156132c357600080fd5b6102c65a03f115156132d457600080fd5b50505060405180519050506001905090565b600060016010600084815260200190815260200160002060000160006101000a81548160ff02191690831515021790555060019050919050565b60066020528060005260406000206000915090505481565b60046020528060005260406000206000915054906101000a900460ff1681565b60076020528060005260406000206000915090505481565b6000600280549050905090565b6009602052816000526040600020602052806000526040600020600091509150508060000160009054906101000a900460ff16908060010154908060020154905083565b60006002828154811015156133d257fe5b906000526020600020900160009054906101000a900473ffffffffffffffffffffffffffffffffffffffff169050919050565b60036020528060005260406000206000915054906101000a900460ff1681565b60015481565b6000806000600960003373ffffffffffffffffffffffffffffffffffffffff1673ffffffffffffffffffffffffffffffffffffffff16815260200190815260200160002060008581526020019081526020016000206001015411151561349057600080fd5b600015156010600085815260200190815260200160002060000160009054906101000a900460ff1615151415156134c657600080fd5b42600560006008600087815260200190815260200160002060009054906101000a900473ffffffffffffffffffffffffffffffffffffffff1673ffffffffffffffffffffffffffffffffffffffff1673ffffffffffffffffffffffffffffffffffffffff168152602001908152602001600020600060066000878152602001908152602001600020548152602001908152602001600020600501541015151561356e57600080fd5b600960003373ffffffffffffffffffffffffffffffffffffffff1673ffffffffffffffffffffffffffffffffffffffff16815260200190815260200160002060008481526020019081526020016000206001015490506000600960003373ffffffffffffffffffffffffffffffffffffffff1673ffffffffffffffffffffffffffffffffffffffff1681526020019081526020016000206000858152602001908152602001600020600101819055506000809054906101000a900473ffffffffffffffffffffffffffffffffffffffff1673ffffffffffffffffffffffffffffffffffffffff166323b872dd6000809054906101000a900473ffffffffffffffffffffffffffffffffffffffff16336064605f6103e887020281151561369057fe5b046000604051602001526040518463ffffffff167c0100000000000000000000000000000000000000000000000000000000028152600401808473ffffffffffffffffffffffffffffffffffffffff1673ffffffffffffffffffffffffffffffffffffffff1681526020018373ffffffffffffffffffffffffffffffffffffffff1673ffffffffffffffffffffffffffffffffffffffff1681526020018281526020019350505050602060405180830381600087803b151561375157600080fd5b6102c65a03f1151561376257600080fd5b50505060405180519050506000809054906101000a900473ffffffffffffffffffffffffffffffffffffffff1673ffffffffffffffffffffffffffffffffffffffff166323b872dd6000809054906101000a900473ffffffffffffffffffffffffffffffffffffffff166008600087815260200190815260200160002060009054906101000a900473ffffffffffffffffffffffffffffffffffffffff16606460056103e887020281151561381357fe5b046000604051602001526040518463ffffffff167c0100000000000000000000000000000000000000000000000000000000028152600401808473ffffffffffffffffffffffffffffffffffffffff1673ffffffffffffffffffffffffffffffffffffffff1681526020018373ffffffffffffffffffffffffffffffffffffffff1673ffffffffffffffffffffffffffffffffffffffff1681526020018281526020019350505050602060405180830381600087803b15156138d457600080fd5b6102c65a03f115156138e557600080fd5b505050604051805190505060001515600960003373ffffffffffffffffffffffffffffffffffffffff1673ffffffffffffffffffffffffffffffffffffffff168152602001908152602001600020600085815260200190815260200160002060000160009054906101000a900460ff16151514156139a75780600c600085815260200190815260200160002060008282540392505081905550600e60008481526020019081526020016000206000815480929190600190039190505550613a5b565b60011515600960003373ffffffffffffffffffffffffffffffffffffffff1673ffffffffffffffffffffffffffffffffffffffff168152602001908152602001600020600085815260200190815260200160002060000160009054906101000a900460ff1615151415613a5a5780600d600085815260200190815260200160002060008282540192505081905550600f600084815260200190815260200160002060008154809291906001900391905055505b5b6001915050919050565b60004282118015613a7557504283115b8015613a8057508282115b1515613a8b57600080fd5b60011515600360003373ffffffffffffffffffffffffffffffffffffffff1673ffffffffffffffffffffffffffffffffffffffff16815260200190815260200160002060009054906101000a900460ff161515141515613aea57600080fd5b600160008154809291906001019190505550600760003373ffffffffffffffffffffffffffffffffffffffff1673ffffffffffffffffffffffffffffffffffffffff16815260200190815260200160002060008154809291906001019190505550600154600560003373ffffffffffffffffffffffffffffffffffffffff1673ffffffffffffffffffffffffffffffffffffffff1681526020019081526020016000206000600760003373ffffffffffffffffffffffffffffffffffffffff1673ffffffffffffffffffffffffffffffffffffffff1681526020019081526020016000205481526020019081526020016000206000018190555085600560003373ffffffffffffffffffffffffffffffffffffffff1673ffffffffffffffffffffffffffffffffffffffff1681526020019081526020016000206000600760003373ffffffffffffffffffffffffffffffffffffffff1673ffffffffffffffffffffffffffffffffffffffff1681526020019081526020016000205481526020019081526020016000206001019080519060200190613c8a92919061401c565b5084600560003373ffffffffffffffffffffffffffffffffffffffff1673ffffffffffffffffffffffffffffffffffffffff1681526020019081526020016000206000600760003373ffffffffffffffffffffffffffffffffffffffff1673ffffffffffffffffffffffffffffffffffffffff1681526020019081526020016000205481526020019081526020016000206002019080519060200190613d3192919061401c565b5083600560003373ffffffffffffffffffffffffffffffffffffffff1673ffffffffffffffffffffffffffffffffffffffff1681526020019081526020016000206000600760003373ffffffffffffffffffffffffffffffffffffffff1673ffffffffffffffffffffffffffffffffffffffff16815260200190815260200160002054815260200190815260200160002060030160006101000a81548160ff02191690831515021790555082600560003373ffffffffffffffffffffffffffffffffffffffff1673ffffffffffffffffffffffffffffffffffffffff1681526020019081526020016000206000600760003373ffffffffffffffffffffffffffffffffffffffff1673ffffffffffffffffffffffffffffffffffffffff1681526020019081526020016000205481526020019081526020016000206004018190555081600560003373ffffffffffffffffffffffffffffffffffffffff1673ffffffffffffffffffffffffffffffffffffffff1681526020019081526020016000206000600760003373ffffffffffffffffffffffffffffffffffffffff1673ffffffffffffffffffffffffffffffffffffffff16815260200190815260200160002054815260200190815260200160002060050181905550600760003373ffffffffffffffffffffffffffffffffffffffff1673ffffffffffffffffffffffffffffffffffffffff16815260200190815260200160002054600660006001548152602001908152602001600020819055503360086000600154815260200190815260200160002060006101000a81548173ffffffffffffffffffffffffffffffffffffffff021916908373ffffffffffffffffffffffffffffffffffffffff1602179055506001905095945050505050565b815481835581811511613feb57818360005260206000209182019101613fea919061409c565b5b505050565b81548183558181151161401757818360005260206000209182019101614016919061409c565b5b505050565b828054600181600116156101000203166002900490600052602060002090601f016020900481019282601f1061405d57805160ff191683800117855561408b565b8280016001018555821561408b579182015b8281111561408a57825182559160200191906001019061406f565b5b509050614098919061409c565b5090565b6140be91905b808211156140ba5760008160009055506001016140a2565b5090565b905600a165627a7a72305820920cd1b55118c7c7fd339c1c8c055ad4bd2d390d08ab2e286c99dfbac40ab74a0029",
  "source": "pragma solidity ^0.4.0;\r\nimport \"./High_low_2_token.sol\";\r\ncontract High_low_2\r\n{\r\n    High_low_2_token token_address;\r\n    \r\n    event Transfer_amount(address _sender,address _receiver,uint256 _transfer_amount);\r\n    \r\n    function High_low_2(High_low_2_token _token_address) public payable\r\n    {\r\n        token_address = _token_address;\r\n    }\r\n    \r\n    function buy_token() public payable returns(bool)\r\n    {\r\n        High_low_2_token(token_address).transferFrom(token_address, msg.sender, msg.value*1000);\r\n        return true;\r\n    }\r\n    \r\n    function exchange_token(uint256 tokens_to_exchange_in_wei) public payable returns(bool)\r\n    {\r\n        require(High_low_2_token(token_address).balanceOf(msg.sender)>= tokens_to_exchange_in_wei*1000);\r\n        High_low_2_token(token_address).transferFrom(msg.sender,token_address, tokens_to_exchange_in_wei*1000);\r\n        msg.sender.transfer(tokens_to_exchange_in_wei);\r\n        Transfer_amount(this,msg.sender,tokens_to_exchange_in_wei);\r\n        return true;\r\n    }\r\n    \r\n    function account_token_balance() public constant returns(uint256)\r\n    {\r\n        return High_low_2_token(token_address).balanceOf(msg.sender);\r\n    }\r\n    \r\n    function contract_ether_balance() public constant returns(uint256)\r\n    {\r\n        return address(this).balance;\r\n    }\r\n    \r\n    function contract_token_balance() public constant returns(uint256)\r\n    {\r\n        return High_low_2_token(token_address).balanceOf(token_address);       \r\n    }\r\n    \r\n    uint256 public _bet_id;\r\n    \r\n    address[] public broker_addresses;\r\n\r\n    mapping(address=>bool) public is_broker;\r\n    \r\n    mapping(address=>bool) public is_better;\r\n    \r\n    struct bet_details\r\n    {\r\n        uint256 bet_id;\r\n        string team_1;\r\n        string team_2;\r\n        bool team_selecetd;\r\n        uint256 start_time;\r\n        uint256 expiry_time;\r\n        uint256 result;//10=low 11=high 12=draw\r\n    }\r\n    mapping(address=>mapping(uint256=>bet_details)) public bet_details_map; // key 1: better_address key2:broker_bets(iterate this)\r\n    \r\n    mapping(uint256=>uint256) public index_of_broker_bet;//key:bet_id  value: index_of_broker_bet(broker_created_bets)\r\n    \r\n    mapping(address=>uint256) public broker_created_bets;// total bet created by that particular broker (5)\r\n    \r\n    mapping(uint256=>address) public bet_creator;\r\n    \r\n    struct better\r\n    {\r\n        bool option;\r\n        uint256 betted_tokens;\r\n        uint256 tokens_won;\r\n    }\r\n    mapping(address=>mapping(uint256=>better)) public game_id_map_better;//key: index  value:betting     \r\n    \r\n    mapping(uint256=>address[]) public betters_of_bet_id;\r\n    \r\n    mapping(address=>uint256[]) public better_betted_bets;\r\n    \r\n    mapping(uint256=>uint256) public bet_tokens_for_low;\r\n    \r\n    mapping(uint256=>uint256) public bet_tokens_for_high; \r\n    \r\n    mapping(uint256=>uint256) public low_betters;\r\n    \r\n    mapping(uint256=>uint256) public high_betters;\r\n    \r\n    struct bet_status\r\n    {\r\n        bool is_bet_stopped;\r\n        bool is_result_published; //to check is_result_published\r\n        uint256 final_option; //10,11,12 \r\n    }\r\n    mapping(uint256=>bet_status) public bet_status_map; \r\n    \r\n    function add_broker() public payable returns(bool)\r\n    {\r\n        require(!check_broker());\r\n        require(length_of_broker_addresses()<6);\r\n        broker_addresses.push(msg.sender);\r\n        is_broker[msg.sender]=true;\r\n        return true;\r\n    }\r\n    \r\n    function check_broker() public constant returns(bool) // is_broker\r\n    {\r\n        return is_broker[msg.sender];\r\n    }\r\n    \r\n    function length_of_broker_addresses() public constant returns(uint256)\r\n    {\r\n        return broker_addresses.length;\r\n    }\r\n    \r\n    function get_broker_address(uint256 index) public constant returns(address)\r\n    {\r\n        return broker_addresses[index]; //index start from 0\r\n    }\r\n    \r\n    function check_better() public constant returns(bool)\r\n    {\r\n        return is_better[msg.sender];    \r\n    }\r\n    \r\n    function broker_set_game(string _team_1, string _team_2, bool _team_selecetd, uint256 _start_time, uint256 _expiry_time) public payable returns(bool) // newbet, new_game_id\r\n    {\r\n        require(_expiry_time>now && _start_time>now && _expiry_time>_start_time);\r\n        require(is_broker[msg.sender]==true);\r\n        _bet_id++;\r\n        broker_created_bets[msg.sender]++;\r\n        bet_details_map[msg.sender][broker_created_bets[msg.sender]].bet_id=_bet_id;\r\n        bet_details_map[msg.sender][broker_created_bets[msg.sender]].team_1=_team_1;\r\n        bet_details_map[msg.sender][broker_created_bets[msg.sender]].team_2=_team_2;\r\n        bet_details_map[msg.sender][broker_created_bets[msg.sender]].team_selecetd=_team_selecetd;\r\n        bet_details_map[msg.sender][broker_created_bets[msg.sender]].start_time=_start_time;\r\n        bet_details_map[msg.sender][broker_created_bets[msg.sender]].expiry_time=_expiry_time;\r\n        index_of_broker_bet[_bet_id]=broker_created_bets[msg.sender];\r\n        bet_creator[_bet_id]=msg.sender;\r\n        return true;\r\n    }\r\n    \r\n    function betting(uint256 bet_id,uint256 _choice,uint256 _bet_tokens_in_wei) public payable returns(bool) // is_bet_success \r\n    {\r\n        require(_bet_tokens_in_wei>0);\r\n        require(High_low_2_token(token_address).balanceOf(msg.sender)>=_bet_tokens_in_wei*1000);\r\n        require(bet_details_map[bet_creator[bet_id]][index_of_broker_bet[bet_id]].start_time<=now);\r\n        require(bet_details_map[bet_creator[bet_id]][index_of_broker_bet[bet_id]].expiry_time>=now);\r\n        require(bet_status_map[bet_id].is_bet_stopped==false);\r\n        require(game_id_map_better[msg.sender][bet_id].betted_tokens==0);\r\n        require(_choice==1||_choice==0);\r\n        \r\n        High_low_2_token(token_address).transferFrom(msg.sender, token_address, _bet_tokens_in_wei*1000);\r\n        game_id_map_better[msg.sender][bet_id].betted_tokens=_bet_tokens_in_wei;\r\n        \r\n        if(_choice==0)\r\n        {\r\n            game_id_map_better[msg.sender][bet_id].option=false;\r\n            bet_tokens_for_low[bet_id]+=_bet_tokens_in_wei;\r\n            low_betters[bet_id]++;\r\n        }\r\n        else if(_choice==1)\r\n        {\r\n            game_id_map_better[msg.sender][bet_id].option=true;\r\n            bet_tokens_for_high[bet_id]+=_bet_tokens_in_wei;\r\n            high_betters[bet_id]++;\r\n        }\r\n        \r\n        betters_of_bet_id[bet_id].push(msg.sender);\r\n        \r\n        better_betted_bets[msg.sender].push(bet_id);\r\n        if(is_better[msg.sender]==false)\r\n        is_better[msg.sender]=true;//added as a user\r\n        \r\n        return true;\r\n    }\r\n    \r\n    function broker_stop_bet(uint256 bet_id) public payable returns(bool) //is_bet_stopped\r\n    {\r\n        bet_status_map[bet_id].is_bet_stopped=true;\r\n        return true;\r\n    }\r\n    function better_increase_bet_tokens(uint256 bet_id,uint256 _increase_tokens_in_wei) public payable returns(bool)// is_increase_success\r\n    {\r\n        require(game_id_map_better[msg.sender][bet_id].betted_tokens>0);\r\n        require(bet_status_map[bet_id].is_bet_stopped==false);\r\n        require(bet_details_map[bet_creator[bet_id]][index_of_broker_bet[bet_id]].expiry_time>=now);\r\n        require(High_low_2_token(token_address).balanceOf(msg.sender)>=_increase_tokens_in_wei*1000);\r\n        High_low_2_token(token_address).transferFrom(msg.sender,token_address,_increase_tokens_in_wei*1000);\r\n        game_id_map_better[msg.sender][bet_id].betted_tokens+=_increase_tokens_in_wei;\r\n        \r\n        if(game_id_map_better[msg.sender][bet_id].option==false)\r\n            bet_tokens_for_low[bet_id]+=_increase_tokens_in_wei;\r\n        else if(game_id_map_better[msg.sender][bet_id].option==true)\r\n            bet_tokens_for_high[bet_id]+=_increase_tokens_in_wei;\r\n        \r\n        return true;\r\n    }\r\n    \r\n    function better_exit_bet(uint256 bet_id) public payable returns(bool)\r\n    {\r\n        require(game_id_map_better[msg.sender][bet_id].betted_tokens>0);\r\n        require(bet_status_map[bet_id].is_bet_stopped==false);\r\n        require(bet_details_map[bet_creator[bet_id]][index_of_broker_bet[bet_id]].expiry_time>=now);\r\n        \r\n        uint256 tokens_betted=game_id_map_better[msg.sender][bet_id].betted_tokens;\r\n        game_id_map_better[msg.sender][bet_id].betted_tokens=0;\r\n        High_low_2_token(token_address).transferFrom(token_address, msg.sender, (tokens_betted*1000*95)/100);\r\n        High_low_2_token(token_address).transferFrom(token_address, bet_creator[bet_id], (tokens_betted*1000*5)/100);\r\n        \r\n        if(game_id_map_better[msg.sender][bet_id].option==false)\r\n        {\r\n            bet_tokens_for_low[bet_id]-=tokens_betted;\r\n            low_betters[bet_id]--;\r\n        }\r\n        else if(game_id_map_better[msg.sender][bet_id].option==true)\r\n        {\r\n            bet_tokens_for_high[bet_id]+=tokens_betted;\r\n            high_betters[bet_id]--;\r\n        }\r\n        return true;    \r\n    }\r\n    function broker_setting_result_and_distribute_money(uint256 bet_id,uint256 result_options) public payable returns(bool)\r\n    {\r\n        require(bet_creator[bet_id]==msg.sender);\r\n        require(bet_details_map[bet_creator[bet_id]][index_of_broker_bet[bet_id]].expiry_time>=now);\r\n        require(bet_status_map[bet_id].is_result_published==false);\r\n        require(result_options<=12 && result_options>=10);  //10 ==low  11==high  12==draw\r\n        \r\n        \r\n        bet_status_map[bet_id].is_result_published=true;\r\n        bet_status_map[bet_id].final_option=result_options;\r\n        //bool result_option;\r\n        \r\n        uint256 count = betters_of_bet_id[bet_id].length;\r\n        \r\n        if(result_options==12)\r\n        {\r\n            //draw\r\n            while(count>0)\r\n            {\r\n                if(game_id_map_better[betters_of_bet_id[bet_id][count-1]][bet_id].betted_tokens>0)\r\n                {\r\n                    High_low_2_token(token_address).transferFrom(token_address, betters_of_bet_id[bet_id][count-1], game_id_map_better[betters_of_bet_id[bet_id][count-1]][bet_id].betted_tokens*1000);\r\n                }\r\n                count--;\r\n            }\r\n            return true;\r\n        }\r\n        else if(result_options==11)\r\n        {\r\n            //high setted as result \r\n            \r\n            //uint256 low_high_ratio = ; \r\n            while(count>0)\r\n            {\r\n                if(game_id_map_better[betters_of_bet_id[bet_id][count-1]][bet_id].betted_tokens>0 && game_id_map_better[betters_of_bet_id[bet_id][count-1]][bet_id].option==true)\r\n                {\r\n                    //betted tokens:   game_id_map_better[betters_of_bet_id[bet_id][count-1]][bet_id].betted_tokens\r\n                    //low bet token:   bet_tokens_for_low[bet_id]\r\n                    //high bet tokens: bet_tokens_for_high[bet_id]\r\n                    //(game_id_map_better[betters_of_bet_id[bet_id][count-1]][bet_id].betted_tokens*bet_tokens_for_low[bet_id])\r\n                    //((game_id_map_better[betters_of_bet_id[bet_id][count-1]][bet_id].betted_tokens*bet_tokens_for_low[bet_id])/bet_tokens_for_high[bet_id])\r\n                    //(game_id_map_better[betters_of_bet_id[bet_id][count-1]][bet_id].betted_tokens+((game_id_map_better[betters_of_bet_id[bet_id][count-1]][bet_id].betted_tokens*bet_tokens_for_low[bet_id])/bet_tokens_for_high[bet_id]))\r\n                    //(1000*(game_id_map_better[betters_of_bet_id[bet_id][count-1]][bet_id].betted_tokens+((game_id_map_better[betters_of_bet_id[bet_id][count-1]][bet_id].betted_tokens*bet_tokens_for_low[bet_id])/bet_tokens_for_high[bet_id])))\r\n                    //\r\n                    High_low_2_token(token_address).transferFrom(token_address, betters_of_bet_id[bet_id][count-1], (1000*(game_id_map_better[betters_of_bet_id[bet_id][count-1]][bet_id].betted_tokens+((game_id_map_better[betters_of_bet_id[bet_id][count-1]][bet_id].betted_tokens*bet_tokens_for_low[bet_id])/bet_tokens_for_high[bet_id]))));\r\n                    game_id_map_better[betters_of_bet_id[bet_id][count-1]][bet_id].tokens_won=((game_id_map_better[betters_of_bet_id[bet_id][count-1]][bet_id].betted_tokens*bet_tokens_for_low[bet_id])/bet_tokens_for_high[bet_id]);\r\n                }\r\n                count--;\r\n            }\r\n            return true;\r\n        }\r\n        \r\n        else if(result_options==10)\r\n        {\r\n            //low setted as result \r\n            \r\n            while(count>0)\r\n            {\r\n                if(game_id_map_better[betters_of_bet_id[bet_id][count-1]][bet_id].betted_tokens>0 && game_id_map_better[betters_of_bet_id[bet_id][count-1]][bet_id].option==false)\r\n                {\r\n                    //betted tokens:   game_id_map_better[betters_of_bet_id[bet_id][count-1]][bet_id].betted_tokens\r\n                    //low bet token:   bet_tokens_for_low[bet_id]\r\n                    //high bet tokens: bet_tokens_for_high[bet_id]\r\n                    //(game_id_map_better[betters_of_bet_id[bet_id][count-1]][bet_id].betted_tokens*bet_tokens_for_high[bet_id])\r\n                    //((game_id_map_better[betters_of_bet_id[bet_id][count-1]][bet_id].betted_tokens*bet_tokens_for_high[bet_id])/bet_tokens_for_low[bet_id])\r\n                    //(game_id_map_better[betters_of_bet_id[bet_id][count-1]][bet_id].betted_tokens+((game_id_map_better[betters_of_bet_id[bet_id][count-1]][bet_id].betted_tokens*bet_tokens_for_high[bet_id])/bet_tokens_for_low[bet_id]))\r\n                    High_low_2_token(token_address).transferFrom(token_address, betters_of_bet_id[bet_id][count-1], (1000*(game_id_map_better[betters_of_bet_id[bet_id][count-1]][bet_id].betted_tokens+((game_id_map_better[betters_of_bet_id[bet_id][count-1]][bet_id].betted_tokens*bet_tokens_for_high[bet_id])/bet_tokens_for_low[bet_id])))); \r\n                    game_id_map_better[betters_of_bet_id[bet_id][count-1]][bet_id].tokens_won=((game_id_map_better[betters_of_bet_id[bet_id][count-1]][bet_id].betted_tokens*bet_tokens_for_high[bet_id])/bet_tokens_for_low[bet_id]);\r\n                }\r\n                count--;\r\n            }\r\n            return true;\r\n        }\r\n        return true;\r\n    }\r\n}",
  "sourcePath": "D:\\highlowversion2\\High-Low-V2\\contracts\\High_low_2.sol",
  "compiler": {
    "name": "solc",
    "version": "0.4.19+commit.c4cbbb05.Emscripten.clang"
  },
  "schemaVersion": "2.0.0",
  "updatedAt": "2018-04-19T10:20:14.412Z"
}