{
  "contractName": "High_low_2",
  "abi": [
    {
      "constant": true,
      "inputs": [
        {
          "name": "",
          "type": "uint256"
        }
      ],
      "name": "bet_creator",
      "outputs": [
        {
          "name": "",
          "type": "address"
        }
      ],
      "payable": false,
      "stateMutability": "view",
      "type": "function"
    },
    {
      "constant": true,
      "inputs": [],
      "name": "name",
      "outputs": [
        {
          "name": "",
          "type": "string"
        }
      ],
      "payable": false,
      "stateMutability": "view",
      "type": "function"
    },
    {
      "constant": true,
      "inputs": [
        {
          "name": "",
          "type": "uint256"
        }
      ],
      "name": "bet_status_map",
      "outputs": [
        {
          "name": "is_bet_stopped",
          "type": "bool"
        },
        {
          "name": "is_result_published",
          "type": "bool"
        },
        {
          "name": "final_option",
          "type": "uint256"
        }
      ],
      "payable": false,
      "stateMutability": "view",
      "type": "function"
    },
    {
      "constant": true,
      "inputs": [],
      "name": "decimals",
      "outputs": [
        {
          "name": "",
          "type": "uint8"
        }
      ],
      "payable": false,
      "stateMutability": "view",
      "type": "function"
    },
    {
      "constant": true,
      "inputs": [
        {
          "name": "",
          "type": "address"
        },
        {
          "name": "",
          "type": "uint256"
        }
      ],
      "name": "bet_details_map",
      "outputs": [
        {
          "name": "bet_id",
          "type": "uint256"
        },
        {
          "name": "team_1",
          "type": "string"
        },
        {
          "name": "team_2",
          "type": "string"
        },
        {
          "name": "team_selecetd",
          "type": "bool"
        },
        {
          "name": "start_time",
          "type": "uint256"
        },
        {
          "name": "expiry_time",
          "type": "uint256"
        }
      ],
      "payable": false,
      "stateMutability": "view",
      "type": "function"
    },
    {
      "constant": true,
      "inputs": [
        {
          "name": "",
          "type": "address"
        },
        {
          "name": "",
          "type": "uint256"
        }
      ],
      "name": "better_betted_bets",
      "outputs": [
        {
          "name": "",
          "type": "uint256"
        }
      ],
      "payable": false,
      "stateMutability": "view",
      "type": "function"
    },
    {
      "constant": true,
      "inputs": [
        {
          "name": "",
          "type": "uint256"
        }
      ],
      "name": "low_betters",
      "outputs": [
        {
          "name": "",
          "type": "uint256"
        }
      ],
      "payable": false,
      "stateMutability": "view",
      "type": "function"
    },
    {
      "constant": true,
      "inputs": [],
      "name": "_totalSupply",
      "outputs": [
        {
          "name": "",
          "type": "uint256"
        }
      ],
      "payable": false,
      "stateMutability": "view",
      "type": "function"
    },
    {
      "constant": true,
      "inputs": [
        {
          "name": "",
          "type": "uint256"
        }
      ],
      "name": "high_betters",
      "outputs": [
        {
          "name": "",
          "type": "uint256"
        }
      ],
      "payable": false,
      "stateMutability": "view",
      "type": "function"
    },
    {
      "constant": true,
      "inputs": [
        {
          "name": "",
          "type": "uint256"
        }
      ],
      "name": "bet_tokens_for_low",
      "outputs": [
        {
          "name": "",
          "type": "uint256"
        }
      ],
      "payable": false,
      "stateMutability": "view",
      "type": "function"
    },
    {
      "constant": true,
      "inputs": [
        {
          "name": "",
          "type": "uint256"
        }
      ],
      "name": "broker_addresses",
      "outputs": [
        {
          "name": "",
          "type": "address"
        }
      ],
      "payable": false,
      "stateMutability": "view",
      "type": "function"
    },
    {
      "constant": true,
      "inputs": [
        {
          "name": "",
          "type": "uint256"
        },
        {
          "name": "",
          "type": "uint256"
        }
      ],
      "name": "betters_of_bet_id",
      "outputs": [
        {
          "name": "",
          "type": "address"
        }
      ],
      "payable": false,
      "stateMutability": "view",
      "type": "function"
    },
    {
      "constant": true,
      "inputs": [
        {
          "name": "",
          "type": "uint256"
        }
      ],
      "name": "bet_tokens_for_high",
      "outputs": [
        {
          "name": "",
          "type": "uint256"
        }
      ],
      "payable": false,
      "stateMutability": "view",
      "type": "function"
    },
    {
      "constant": true,
      "inputs": [],
      "name": "symbol",
      "outputs": [
        {
          "name": "",
          "type": "string"
        }
      ],
      "payable": false,
      "stateMutability": "view",
      "type": "function"
    },
    {
      "constant": true,
      "inputs": [
        {
          "name": "",
          "type": "uint256"
        }
      ],
      "name": "index_of_broker_bet",
      "outputs": [
        {
          "name": "",
          "type": "uint256"
        }
      ],
      "payable": false,
      "stateMutability": "view",
      "type": "function"
    },
    {
      "constant": true,
      "inputs": [
        {
          "name": "",
          "type": "address"
        }
      ],
      "name": "is_better",
      "outputs": [
        {
          "name": "",
          "type": "bool"
        }
      ],
      "payable": false,
      "stateMutability": "view",
      "type": "function"
    },
    {
      "constant": true,
      "inputs": [
        {
          "name": "",
          "type": "address"
        }
      ],
      "name": "broker_created_bets",
      "outputs": [
        {
          "name": "",
          "type": "uint256"
        }
      ],
      "payable": false,
      "stateMutability": "view",
      "type": "function"
    },
    {
      "constant": true,
      "inputs": [
        {
          "name": "",
          "type": "address"
        },
        {
          "name": "",
          "type": "uint256"
        }
      ],
      "name": "game_id_map_better",
      "outputs": [
        {
          "name": "option",
          "type": "bool"
        },
        {
          "name": "betted_tokens",
          "type": "uint256"
        }
      ],
      "payable": false,
      "stateMutability": "view",
      "type": "function"
    },
    {
      "constant": true,
      "inputs": [
        {
          "name": "",
          "type": "address"
        }
      ],
      "name": "is_broker",
      "outputs": [
        {
          "name": "",
          "type": "bool"
        }
      ],
      "payable": false,
      "stateMutability": "view",
      "type": "function"
    },
    {
      "constant": true,
      "inputs": [],
      "name": "_bet_id",
      "outputs": [
        {
          "name": "",
          "type": "uint256"
        }
      ],
      "payable": false,
      "stateMutability": "view",
      "type": "function"
    },
    {
      "inputs": [],
      "payable": true,
      "stateMutability": "payable",
      "type": "constructor"
    },
    {
      "anonymous": false,
      "inputs": [
        {
          "indexed": false,
          "name": "indexed_from",
          "type": "address"
        },
        {
          "indexed": false,
          "name": "indexed_to",
          "type": "address"
        },
        {
          "indexed": false,
          "name": "_value",
          "type": "uint256"
        }
      ],
      "name": "Transfer",
      "type": "event"
    },
    {
      "anonymous": false,
      "inputs": [
        {
          "indexed": false,
          "name": "indexed_owner",
          "type": "address"
        },
        {
          "indexed": false,
          "name": "indexed_spender",
          "type": "address"
        },
        {
          "indexed": false,
          "name": "_value",
          "type": "uint256"
        }
      ],
      "name": "Approval",
      "type": "event"
    },
    {
      "anonymous": false,
      "inputs": [
        {
          "indexed": false,
          "name": "_sender",
          "type": "address"
        },
        {
          "indexed": false,
          "name": "_receiver",
          "type": "address"
        },
        {
          "indexed": false,
          "name": "_transfer_amount",
          "type": "uint256"
        }
      ],
      "name": "Transfer_amount",
      "type": "event"
    },
    {
      "constant": true,
      "inputs": [],
      "name": "totalSupply",
      "outputs": [
        {
          "name": "",
          "type": "uint256"
        }
      ],
      "payable": false,
      "stateMutability": "view",
      "type": "function"
    },
    {
      "constant": true,
      "inputs": [
        {
          "name": "_owner",
          "type": "address"
        }
      ],
      "name": "balanceOf",
      "outputs": [
        {
          "name": "",
          "type": "uint256"
        }
      ],
      "payable": false,
      "stateMutability": "view",
      "type": "function"
    },
    {
      "constant": false,
      "inputs": [
        {
          "name": "_to",
          "type": "address"
        },
        {
          "name": "_value",
          "type": "uint256"
        }
      ],
      "name": "transfer",
      "outputs": [
        {
          "name": "",
          "type": "bool"
        }
      ],
      "payable": true,
      "stateMutability": "payable",
      "type": "function"
    },
    {
      "constant": false,
      "inputs": [
        {
          "name": "_from",
          "type": "address"
        },
        {
          "name": "_to",
          "type": "address"
        },
        {
          "name": "_value",
          "type": "uint256"
        }
      ],
      "name": "transferFrom",
      "outputs": [
        {
          "name": "",
          "type": "bool"
        }
      ],
      "payable": true,
      "stateMutability": "payable",
      "type": "function"
    },
    {
      "constant": false,
      "inputs": [
        {
          "name": "_spender",
          "type": "address"
        },
        {
          "name": "_value",
          "type": "uint256"
        }
      ],
      "name": "approve",
      "outputs": [
        {
          "name": "",
          "type": "bool"
        }
      ],
      "payable": true,
      "stateMutability": "payable",
      "type": "function"
    },
    {
      "constant": true,
      "inputs": [
        {
          "name": "_owner",
          "type": "address"
        },
        {
          "name": "_spender",
          "type": "address"
        }
      ],
      "name": "allowance",
      "outputs": [
        {
          "name": "",
          "type": "uint256"
        }
      ],
      "payable": false,
      "stateMutability": "view",
      "type": "function"
    },
    {
      "constant": false,
      "inputs": [],
      "name": "buy_token",
      "outputs": [
        {
          "name": "",
          "type": "bool"
        }
      ],
      "payable": true,
      "stateMutability": "payable",
      "type": "function"
    },
    {
      "constant": false,
      "inputs": [
        {
          "name": "tokens_to_exchange_in_wei",
          "type": "uint256"
        }
      ],
      "name": "exchange_token",
      "outputs": [
        {
          "name": "",
          "type": "bool"
        }
      ],
      "payable": true,
      "stateMutability": "payable",
      "type": "function"
    },
    {
      "constant": true,
      "inputs": [],
      "name": "account_token_balance",
      "outputs": [
        {
          "name": "",
          "type": "uint256"
        }
      ],
      "payable": false,
      "stateMutability": "view",
      "type": "function"
    },
    {
      "constant": true,
      "inputs": [],
      "name": "contract_ether_balance",
      "outputs": [
        {
          "name": "",
          "type": "uint256"
        }
      ],
      "payable": false,
      "stateMutability": "view",
      "type": "function"
    },
    {
      "constant": true,
      "inputs": [],
      "name": "contract_token_balance",
      "outputs": [
        {
          "name": "",
          "type": "uint256"
        }
      ],
      "payable": false,
      "stateMutability": "view",
      "type": "function"
    },
    {
      "constant": true,
      "inputs": [],
      "name": "get_better_betted_bets_length",
      "outputs": [
        {
          "name": "",
          "type": "uint256"
        }
      ],
      "payable": false,
      "stateMutability": "view",
      "type": "function"
    },
    {
      "constant": false,
      "inputs": [],
      "name": "add_broker",
      "outputs": [
        {
          "name": "",
          "type": "bool"
        }
      ],
      "payable": true,
      "stateMutability": "payable",
      "type": "function"
    },
    {
      "constant": true,
      "inputs": [],
      "name": "check_broker",
      "outputs": [
        {
          "name": "",
          "type": "bool"
        }
      ],
      "payable": false,
      "stateMutability": "view",
      "type": "function"
    },
    {
      "constant": true,
      "inputs": [],
      "name": "length_of_broker_addresses",
      "outputs": [
        {
          "name": "",
          "type": "uint256"
        }
      ],
      "payable": false,
      "stateMutability": "view",
      "type": "function"
    },
    {
      "constant": true,
      "inputs": [
        {
          "name": "index",
          "type": "uint256"
        }
      ],
      "name": "get_broker_address",
      "outputs": [
        {
          "name": "",
          "type": "address"
        }
      ],
      "payable": false,
      "stateMutability": "view",
      "type": "function"
    },
    {
      "constant": true,
      "inputs": [],
      "name": "check_better",
      "outputs": [
        {
          "name": "",
          "type": "bool"
        }
      ],
      "payable": false,
      "stateMutability": "view",
      "type": "function"
    },
    {
      "constant": false,
      "inputs": [
        {
          "name": "_team_1",
          "type": "string"
        },
        {
          "name": "_team_2",
          "type": "string"
        },
        {
          "name": "_team_selecetd",
          "type": "bool"
        },
        {
          "name": "_start_time",
          "type": "uint256"
        },
        {
          "name": "_expiry_time",
          "type": "uint256"
        }
      ],
      "name": "broker_set_game",
      "outputs": [
        {
          "name": "",
          "type": "bool"
        }
      ],
      "payable": true,
      "stateMutability": "payable",
      "type": "function"
    },
    {
      "constant": false,
      "inputs": [
        {
          "name": "bet_id",
          "type": "uint256"
        },
        {
          "name": "_choice",
          "type": "uint256"
        },
        {
          "name": "_bet_tokens_in_wei",
          "type": "uint256"
        }
      ],
      "name": "betting",
      "outputs": [
        {
          "name": "",
          "type": "bool"
        }
      ],
      "payable": true,
      "stateMutability": "payable",
      "type": "function"
    },
    {
      "constant": false,
      "inputs": [
        {
          "name": "bet_id",
          "type": "uint256"
        }
      ],
      "name": "broker_stop_bet",
      "outputs": [
        {
          "name": "",
          "type": "bool"
        }
      ],
      "payable": true,
      "stateMutability": "payable",
      "type": "function"
    },
    {
      "constant": false,
      "inputs": [
        {
          "name": "bet_id",
          "type": "uint256"
        },
        {
          "name": "_increase_tokens_in_wei",
          "type": "uint256"
        }
      ],
      "name": "better_increase_bet_tokens",
      "outputs": [
        {
          "name": "",
          "type": "bool"
        }
      ],
      "payable": true,
      "stateMutability": "payable",
      "type": "function"
    },
    {
      "constant": false,
      "inputs": [
        {
          "name": "bet_id",
          "type": "uint256"
        }
      ],
      "name": "better_exit_bet",
      "outputs": [
        {
          "name": "",
          "type": "bool"
        }
      ],
      "payable": true,
      "stateMutability": "payable",
      "type": "function"
    },
    {
      "constant": false,
      "inputs": [
        {
          "name": "bet_id",
          "type": "uint256"
        },
        {
          "name": "result_options",
          "type": "uint256"
        }
      ],
      "name": "broker_setting_result_and_distribute_money",
      "outputs": [
        {
          "name": "",
          "type": "bool"
        }
      ],
      "payable": true,
      "stateMutability": "payable",
      "type": "function"
    }
  ],
  "bytecode": "0x60606040526040805190810160405280600381526020017f484c540000000000000000000000000000000000000000000000000000000000815250600090805190602001906200005192919062000129565b506040805190810160405280600e81526020017f48696768204c6f7720546f6b656e000000000000000000000000000000000000815250600190805190602001906200009f92919062000129565b506012600260006101000a81548160ff021916908360ff160217905550600260009054906101000a900460ff1660ff16600a0a6298968002600381905550600354600460003073ffffffffffffffffffffffffffffffffffffffff1673ffffffffffffffffffffffffffffffffffffffff16815260200190815260200160002081905550620001d8565b828054600181600116156101000203166002900490600052602060002090601f016020900481019282601f106200016c57805160ff19168380011785556200019d565b828001600101855582156200019d579182015b828111156200019c5782518255916020019190600101906200017f565b5b509050620001ac9190620001b0565b5090565b620001d591905b80821115620001d1576000816000905550600101620001b7565b5090565b90565b613a5e80620001e86000396000f30060606040526004361061020e576000357c0100000000000000000000000000000000000000000000000000000000900463ffffffff168062ada0f21461021357806306fdde0314610276578063095ea7b31461030457806311761ed21461035357806316dcd4cc1461037557806318160ddd146103a2578063182d7957146103cb5780631ddaa15b1461041857806323b872dd14610451578063313ce567146104bf5780633442586a146104ee578063388424fc1461051757806339472f691461069857806339d200e1146106ee5780633eaaf86b1461072557806340721d1b1461074e57806342950e6414610785578063531ba6a6146107ae57806357720d4a146107d757806361d3a8d71461080057806363b0e93b146108375780637028403e1461089a57806370a0823114610906578063760c883c1461095357806379842436146109805780637cc75c3d146109b057806381c77736146109e75780638328bb4f14610a2057806383d8cfc014610a6257806395d89b4114610a845780639682f17714610b1257806398e8c09514610b42578063a9059cbb14610b79578063ab13610014610bc8578063afb06dc314610c19578063bc9b159b14610c66578063d55964ad14610c8f578063dd62ed3e14610cf0578063e098849614610d5c578063e2605e5314610dbf578063e98ba0c714610e10578063ed23f5f414610e39578063faadb0ff14610e69575b600080fd5b341561021e57600080fd5b6102346004808035906020019091905050610f33565b604051808273ffffffffffffffffffffffffffffffffffffffff1673ffffffffffffffffffffffffffffffffffffffff16815260200191505060405180910390f35b341561028157600080fd5b610289610f66565b6040518080602001828103825283818151815260200191508051906020019080838360005b838110156102c95780820151818401526020810190506102ae565b50505050905090810190601f1680156102f65780820380516001836020036101000a031916815260200191505b509250505060405180910390f35b610339600480803573ffffffffffffffffffffffffffffffffffffffff16906020019091908035906020019091905050611004565b604051808215151515815260200191505060405180910390f35b61035b611130565b604051808215151515815260200191505060405180910390f35b341561038057600080fd5b61038861121e565b604051808215151515815260200191505060405180910390f35b34156103ad57600080fd5b6103b5611272565b6040518082815260200191505060405180910390f35b34156103d657600080fd5b6103ec600480803590602001909190505061127c565b604051808415151515815260200183151515158152602001828152602001935050505060405180910390f35b61043760048080359060200190919080359060200190919050506112c0565b604051808215151515815260200191505060405180910390f35b6104a5600480803573ffffffffffffffffffffffffffffffffffffffff1690602001909190803573ffffffffffffffffffffffffffffffffffffffff169060200190919080359060200190919050506115ba565b604051808215151515815260200191505060405180910390f35b34156104ca57600080fd5b6104d26117ea565b604051808260ff1660ff16815260200191505060405180910390f35b34156104f957600080fd5b6105016117fd565b6040518082815260200191505060405180910390f35b341561052257600080fd5b610557600480803573ffffffffffffffffffffffffffffffffffffffff16906020019091908035906020019091905050611847565b604051808781526020018060200180602001861515151581526020018581526020018481526020018381038352888181546001816001161561010002031660029004815260200191508054600181600116156101000203166002900480156106005780601f106105d557610100808354040283529160200191610600565b820191906000526020600020905b8154815290600101906020018083116105e357829003601f168201915b50508381038252878181546001816001161561010002031660029004815260200191508054600181600116156101000203166002900480156106835780601f1061065857610100808354040283529160200191610683565b820191906000526020600020905b81548152906001019060200180831161066657829003601f168201915b50509850505050505050505060405180910390f35b34156106a357600080fd5b6106d8600480803573ffffffffffffffffffffffffffffffffffffffff1690602001909190803590602001909190505061189b565b6040518082815260200191505060405180910390f35b34156106f957600080fd5b61070f60048080359060200190919050506118cc565b6040518082815260200191505060405180910390f35b341561073057600080fd5b6107386118e4565b6040518082815260200191505060405180910390f35b341561075957600080fd5b61076f60048080359060200190919050506118ea565b6040518082815260200191505060405180910390f35b341561079057600080fd5b610798611902565b6040518082815260200191505060405180910390f35b34156107b957600080fd5b6107c1611912565b6040518082815260200191505060405180910390f35b34156107e257600080fd5b6107ea611922565b6040518082815260200191505060405180910390f35b341561080b57600080fd5b6108216004808035906020019091905050611941565b6040518082815260200191505060405180910390f35b341561084257600080fd5b6108586004808035906020019091905050611959565b604051808273ffffffffffffffffffffffffffffffffffffffff1673ffffffffffffffffffffffffffffffffffffffff16815260200191505060405180910390f35b34156108a557600080fd5b6108c46004808035906020019091908035906020019091905050611998565b604051808273ffffffffffffffffffffffffffffffffffffffff1673ffffffffffffffffffffffffffffffffffffffff16815260200191505060405180910390f35b341561091157600080fd5b61093d600480803573ffffffffffffffffffffffffffffffffffffffff169060200190919050506119e6565b6040518082815260200191505060405180910390f35b341561095e57600080fd5b610966611a2f565b604051808215151515815260200191505060405180910390f35b6109966004808035906020019091905050611a83565b604051808215151515815260200191505060405180910390f35b34156109bb57600080fd5b6109d16004808035906020019091905050611b7d565b6040518082815260200191505060405180910390f35b610a066004808035906020019091908035906020019091905050611b95565b604051808215151515815260200191505060405180910390f35b610a486004808035906020019091908035906020019091908035906020019091905050612613565b604051808215151515815260200191505060405180910390f35b610a6a612b10565b604051808215151515815260200191505060405180910390f35b3415610a8f57600080fd5b610a97612b26565b6040518080602001828103825283818151815260200191508051906020019080838360005b83811015610ad7578082015181840152602081019050610abc565b50505050905090810190601f168015610b045780820380516001836020036101000a031916815260200191505b509250505060405180910390f35b610b286004808035906020019091905050612bc4565b604051808215151515815260200191505060405180910390f35b3415610b4d57600080fd5b610b636004808035906020019091905050612bfe565b6040518082815260200191505060405180910390f35b610bae600480803573ffffffffffffffffffffffffffffffffffffffff16906020019091908035906020019091905050612c16565b604051808215151515815260200191505060405180910390f35b3415610bd357600080fd5b610bff600480803573ffffffffffffffffffffffffffffffffffffffff16906020019091905050612e45565b604051808215151515815260200191505060405180910390f35b3415610c2457600080fd5b610c50600480803573ffffffffffffffffffffffffffffffffffffffff16906020019091905050612e65565b6040518082815260200191505060405180910390f35b3415610c7157600080fd5b610c79612e7d565b6040518082815260200191505060405180910390f35b3415610c9a57600080fd5b610ccf600480803573ffffffffffffffffffffffffffffffffffffffff16906020019091908035906020019091905050612e8a565b60405180831515151581526020018281526020019250505060405180910390f35b3415610cfb57600080fd5b610d46600480803573ffffffffffffffffffffffffffffffffffffffff1690602001909190803573ffffffffffffffffffffffffffffffffffffffff16906020019091905050612ec8565b6040518082815260200191505060405180910390f35b3415610d6757600080fd5b610d7d6004808035906020019091905050612f4f565b604051808273ffffffffffffffffffffffffffffffffffffffff1673ffffffffffffffffffffffffffffffffffffffff16815260200191505060405180910390f35b3415610dca57600080fd5b610df6600480803573ffffffffffffffffffffffffffffffffffffffff16906020019091905050612f93565b604051808215151515815260200191505060405180910390f35b3415610e1b57600080fd5b610e23612fb3565b6040518082815260200191505060405180910390f35b610e4f6004808035906020019091905050612fb9565b604051808215151515815260200191505060405180910390f35b610f19600480803590602001908201803590602001908080601f0160208091040260200160405190810160405280939291908181526020018383808284378201915050505050509190803590602001908201803590602001908080601f016020809104026020016040519081016040528093929190818152602001838380828437820191505050505050919080351515906020019091908035906020019091908035906020019091905050613391565b604051808215151515815260200191505060405180910390f35b600d6020528060005260406000206000915054906101000a900473ffffffffffffffffffffffffffffffffffffffff1681565b60018054600181600116156101000203166002900480601f016020809104026020016040519081016040528092919081815260200182805460018160011615610100020316600290048015610ffc5780601f10610fd157610100808354040283529160200191610ffc565b820191906000526020600020905b815481529060010190602001808311610fdf57829003601f168201915b505050505081565b600081600560003373ffffffffffffffffffffffffffffffffffffffff1673ffffffffffffffffffffffffffffffffffffffff16815260200190815260200160002060008573ffffffffffffffffffffffffffffffffffffffff1673ffffffffffffffffffffffffffffffffffffffff168152602001908152602001600020819055507f8c5be1e5ebec7d5bd14f71427d1e84f3dd0314c0f7b2291e5b200ac8c7c3b925338484604051808473ffffffffffffffffffffffffffffffffffffffff1673ffffffffffffffffffffffffffffffffffffffff1681526020018373ffffffffffffffffffffffffffffffffffffffff1673ffffffffffffffffffffffffffffffffffffffff168152602001828152602001935050505060405180910390a16001905092915050565b600061113a61121e565b15151561114657600080fd5b6006611150612e7d565b10151561115c57600080fd5b600780548060010182816111709190613935565b9160005260206000209001600033909190916101000a81548173ffffffffffffffffffffffffffffffffffffffff021916908373ffffffffffffffffffffffffffffffffffffffff160217905550506001600860003373ffffffffffffffffffffffffffffffffffffffff1673ffffffffffffffffffffffffffffffffffffffff16815260200190815260200160002060006101000a81548160ff0219169083151502179055506001905090565b6000600860003373ffffffffffffffffffffffffffffffffffffffff1673ffffffffffffffffffffffffffffffffffffffff16815260200190815260200160002060009054906101000a900460ff16905090565b6000600354905090565b60156020528060005260406000206000915090508060000160009054906101000a900460ff16908060000160019054906101000a900460ff16908060010154905083565b600080600e60003373ffffffffffffffffffffffffffffffffffffffff1673ffffffffffffffffffffffffffffffffffffffff16815260200190815260200160002060008581526020019081526020016000206001015411151561132357600080fd5b600015156015600085815260200190815260200160002060000160009054906101000a900460ff16151514151561135957600080fd5b42600a6000600d600087815260200190815260200160002060009054906101000a900473ffffffffffffffffffffffffffffffffffffffff1673ffffffffffffffffffffffffffffffffffffffff1673ffffffffffffffffffffffffffffffffffffffff1681526020019081526020016000206000600b6000878152602001908152602001600020548152602001908152602001600020600501541015151561140157600080fd5b6103e8820261140f336119e6565b1015151561141c57600080fd5b61142b33306103e885026115ba565b5081600e60003373ffffffffffffffffffffffffffffffffffffffff1673ffffffffffffffffffffffffffffffffffffffff16815260200190815260200160002060008581526020019081526020016000206001016000828254019250508190555060001515600e60003373ffffffffffffffffffffffffffffffffffffffff1673ffffffffffffffffffffffffffffffffffffffff168152602001908152602001600020600085815260200190815260200160002060000160009054906101000a900460ff1615151415611520578160116000858152602001908152602001600020600082825401925050819055506115b0565b60011515600e60003373ffffffffffffffffffffffffffffffffffffffff1673ffffffffffffffffffffffffffffffffffffffff168152602001908152602001600020600085815260200190815260200160002060000160009054906101000a900460ff16151514156115af578160126000858152602001908152602001600020600082825401925050819055505b5b6001905092915050565b600081600460008673ffffffffffffffffffffffffffffffffffffffff1673ffffffffffffffffffffffffffffffffffffffff168152602001908152602001600020541015801561160b5750600082115b151561161657600080fd5b61166882600460008773ffffffffffffffffffffffffffffffffffffffff1673ffffffffffffffffffffffffffffffffffffffff168152602001908152602001600020546138f390919063ffffffff16565b600460008673ffffffffffffffffffffffffffffffffffffffff1673ffffffffffffffffffffffffffffffffffffffff168152602001908152602001600020819055506116fd82600460008673ffffffffffffffffffffffffffffffffffffffff1673ffffffffffffffffffffffffffffffffffffffff1681526020019081526020016000205461391490919063ffffffff16565b600460008573ffffffffffffffffffffffffffffffffffffffff1673ffffffffffffffffffffffffffffffffffffffff168152602001908152602001600020819055507fddf252ad1be2c89b69c2b068fc378daa952ba7f163c4a11628f55a4df523b3ef848484604051808473ffffffffffffffffffffffffffffffffffffffff1673ffffffffffffffffffffffffffffffffffffffff1681526020018373ffffffffffffffffffffffffffffffffffffffff1673ffffffffffffffffffffffffffffffffffffffff168152602001828152602001935050505060405180910390a1600190509392505050565b600260009054906101000a900460ff1681565b6000601060003373ffffffffffffffffffffffffffffffffffffffff1673ffffffffffffffffffffffffffffffffffffffff16815260200190815260200160002080549050905090565b600a60205281600052604060002060205280600052604060002060009150915050806000015490806001019080600201908060030160009054906101000a900460ff16908060040154908060050154905086565b6010602052816000526040600020818154811015156118b657fe5b9060005260206000209001600091509150505481565b60136020528060005260406000206000915090505481565b60035481565b60146020528060005260406000206000915090505481565b600061190d336119e6565b905090565b600061191d306119e6565b905090565b60003073ffffffffffffffffffffffffffffffffffffffff1631905090565b60116020528060005260406000206000915090505481565b60078181548110151561196857fe5b90600052602060002090016000915054906101000a900473ffffffffffffffffffffffffffffffffffffffff1681565b600f602052816000526040600020818154811015156119b357fe5b90600052602060002090016000915091509054906101000a900473ffffffffffffffffffffffffffffffffffffffff1681565b6000600460008373ffffffffffffffffffffffffffffffffffffffff1673ffffffffffffffffffffffffffffffffffffffff168152602001908152602001600020549050919050565b6000600960003373ffffffffffffffffffffffffffffffffffffffff1673ffffffffffffffffffffffffffffffffffffffff16815260200190815260200160002060009054906101000a900460ff16905090565b6000611a9433306103e885026115ba565b503373ffffffffffffffffffffffffffffffffffffffff166108fc839081150290604051600060405180830381858888f193505050501515611ad557600080fd5b7fd51af916ec27930d708168315bc82401ecf73ab390083b9558a6fb4bba5cb09c303384604051808473ffffffffffffffffffffffffffffffffffffffff1673ffffffffffffffffffffffffffffffffffffffff1681526020018373ffffffffffffffffffffffffffffffffffffffff1673ffffffffffffffffffffffffffffffffffffffff168152602001828152602001935050505060405180910390a160019050919050565b60126020528060005260406000206000915090505481565b6000803373ffffffffffffffffffffffffffffffffffffffff16600d600086815260200190815260200160002060009054906101000a900473ffffffffffffffffffffffffffffffffffffffff1673ffffffffffffffffffffffffffffffffffffffff16141515611c0557600080fd5b42600a6000600d600088815260200190815260200160002060009054906101000a900473ffffffffffffffffffffffffffffffffffffffff1673ffffffffffffffffffffffffffffffffffffffff1673ffffffffffffffffffffffffffffffffffffffff1681526020019081526020016000206000600b60008881526020019081526020016000205481526020019081526020016000206005015411151515611cad57600080fd5b600015156015600086815260200190815260200160002060000160019054906101000a900460ff161515141515611ce357600080fd5b600c8311158015611cf55750600a8310155b1515611d0057600080fd5b60016015600086815260200190815260200160002060000160016101000a81548160ff021916908315150217905550826015600086815260200190815260200160002060010181905550600f6000858152602001908152602001600020805490509050600c831415611f37575b6000811115611f2e576000600e6000600f600088815260200190815260200160002060018503815481101515611d9f57fe5b906000526020600020900160009054906101000a900473ffffffffffffffffffffffffffffffffffffffff1673ffffffffffffffffffffffffffffffffffffffff1673ffffffffffffffffffffffffffffffffffffffff1681526020019081526020016000206000868152602001908152602001600020600101541115611f2057611f1e30600f600087815260200190815260200160002060018403815481101515611e4757fe5b906000526020600020900160009054906101000a900473ffffffffffffffffffffffffffffffffffffffff166103e8600e6000600f60008b815260200190815260200160002060018803815481101515611e9d57fe5b906000526020600020900160009054906101000a900473ffffffffffffffffffffffffffffffffffffffff1673ffffffffffffffffffffffffffffffffffffffff1673ffffffffffffffffffffffffffffffffffffffff168152602001908152602001600020600089815260200190815260200160002060010154026115ba565b505b808060019003915050611d6d565b6001915061260c565b600b83141561229f575b6000811115612296576000600e6000600f600088815260200190815260200160002060018503815481101515611f7357fe5b906000526020600020900160009054906101000a900473ffffffffffffffffffffffffffffffffffffffff1673ffffffffffffffffffffffffffffffffffffffff1673ffffffffffffffffffffffffffffffffffffffff1681526020019081526020016000206000868152602001908152602001600020600101541180156120ad575060011515600e6000600f60008881526020019081526020016000206001850381548110151561202157fe5b906000526020600020900160009054906101000a900473ffffffffffffffffffffffffffffffffffffffff1673ffffffffffffffffffffffffffffffffffffffff1673ffffffffffffffffffffffffffffffffffffffff168152602001908152602001600020600086815260200190815260200160002060000160009054906101000a900460ff161515145b156122885761228630600f6000878152602001908152602001600020600184038154811015156120d957fe5b906000526020600020900160009054906101000a900473ffffffffffffffffffffffffffffffffffffffff1660126000888152602001908152602001600020546011600089815260200190815260200160002054600e6000600f60008c81526020019081526020016000206001890381548110151561215457fe5b906000526020600020900160009054906101000a900473ffffffffffffffffffffffffffffffffffffffff1673ffffffffffffffffffffffffffffffffffffffff1673ffffffffffffffffffffffffffffffffffffffff16815260200190815260200160002060008a815260200190815260200160002060010154028115156121d957fe5b04600e6000600f60008b81526020019081526020016000206001880381548110151561220157fe5b906000526020600020900160009054906101000a900473ffffffffffffffffffffffffffffffffffffffff1673ffffffffffffffffffffffffffffffffffffffff1673ffffffffffffffffffffffffffffffffffffffff168152602001908152602001600020600089815260200190815260200160002060010154016103e8026115ba565b505b808060019003915050611f41565b6001915061260c565b600a831415612607575b60008111156125fe576000600e6000600f6000888152602001908152602001600020600185038154811015156122db57fe5b906000526020600020900160009054906101000a900473ffffffffffffffffffffffffffffffffffffffff1673ffffffffffffffffffffffffffffffffffffffff1673ffffffffffffffffffffffffffffffffffffffff168152602001908152602001600020600086815260200190815260200160002060010154118015612415575060001515600e6000600f60008881526020019081526020016000206001850381548110151561238957fe5b906000526020600020900160009054906101000a900473ffffffffffffffffffffffffffffffffffffffff1673ffffffffffffffffffffffffffffffffffffffff1673ffffffffffffffffffffffffffffffffffffffff168152602001908152602001600020600086815260200190815260200160002060000160009054906101000a900460ff161515145b156125f0576125ee30600f60008781526020019081526020016000206001840381548110151561244157fe5b906000526020600020900160009054906101000a900473ffffffffffffffffffffffffffffffffffffffff1660116000888152602001908152602001600020546012600089815260200190815260200160002054600e6000600f60008c8152602001908152602001600020600189038154811015156124bc57fe5b906000526020600020900160009054906101000a900473ffffffffffffffffffffffffffffffffffffffff1673ffffffffffffffffffffffffffffffffffffffff1673ffffffffffffffffffffffffffffffffffffffff16815260200190815260200160002060008a8152602001908152602001600020600101540281151561254157fe5b04600e6000600f60008b81526020019081526020016000206001880381548110151561256957fe5b906000526020600020900160009054906101000a900473ffffffffffffffffffffffffffffffffffffffff1673ffffffffffffffffffffffffffffffffffffffff1673ffffffffffffffffffffffffffffffffffffffff168152602001908152602001600020600089815260200190815260200160002060010154016103e8026115ba565b505b8080600190039150506122a9565b6001915061260c565b600191505b5092915050565b6000808211151561262357600080fd5b6103e88202612631336119e6565b1015151561263e57600080fd5b42600a6000600d600088815260200190815260200160002060009054906101000a900473ffffffffffffffffffffffffffffffffffffffff1673ffffffffffffffffffffffffffffffffffffffff1673ffffffffffffffffffffffffffffffffffffffff1681526020019081526020016000206000600b600088815260200190815260200160002054815260200190815260200160002060050154101515156126e657600080fd5b600015156015600086815260200190815260200160002060000160009054906101000a900460ff16151514151561271c57600080fd5b6000600e60003373ffffffffffffffffffffffffffffffffffffffff1673ffffffffffffffffffffffffffffffffffffffff16815260200190815260200160002060008681526020019081526020016000206001015414151561277e57600080fd5b600183148061278d5750600083145b151561279857600080fd5b6127a733306103e885026115ba565b5081600e60003373ffffffffffffffffffffffffffffffffffffffff1673ffffffffffffffffffffffffffffffffffffffff16815260200190815260200160002060008681526020019081526020016000206001018190555060008314156128be576000600e60003373ffffffffffffffffffffffffffffffffffffffff1673ffffffffffffffffffffffffffffffffffffffff168152602001908152602001600020600086815260200190815260200160002060000160006101000a81548160ff0219169083151502179055508160116000868152602001908152602001600020600082825401925050819055506013600085815260200190815260200160002060008154809291906001019190505550612979565b6001831415612978576001600e60003373ffffffffffffffffffffffffffffffffffffffff1673ffffffffffffffffffffffffffffffffffffffff168152602001908152602001600020600086815260200190815260200160002060000160006101000a81548160ff02191690831515021790555081601260008681526020019081526020016000206000828254019250508190555060146000858152602001908152602001600020600081548092919060010191905055505b5b600f6000858152602001908152602001600020805480600101828161299e9190613935565b9160005260206000209001600033909190916101000a81548173ffffffffffffffffffffffffffffffffffffffff021916908373ffffffffffffffffffffffffffffffffffffffff16021790555050601060003373ffffffffffffffffffffffffffffffffffffffff1673ffffffffffffffffffffffffffffffffffffffff1681526020019081526020016000208054806001018281612a3e9190613961565b91600052602060002090016000869091909150555060001515600960003373ffffffffffffffffffffffffffffffffffffffff1673ffffffffffffffffffffffffffffffffffffffff16815260200190815260200160002060009054906101000a900460ff1615151415612b05576001600960003373ffffffffffffffffffffffffffffffffffffffff1673ffffffffffffffffffffffffffffffffffffffff16815260200190815260200160002060006101000a81548160ff0219169083151502179055505b600190509392505050565b6000612b2130336103e834026115ba565b905090565b60008054600181600116156101000203166002900480601f016020809104026020016040519081016040528092919081815260200182805460018160011615610100020316600290048015612bbc5780601f10612b9157610100808354040283529160200191612bbc565b820191906000526020600020905b815481529060010190602001808311612b9f57829003601f168201915b505050505081565b600060016015600084815260200190815260200160002060000160006101000a81548160ff02191690831515021790555060019050919050565b600b6020528060005260406000206000915090505481565b600081600460003373ffffffffffffffffffffffffffffffffffffffff1673ffffffffffffffffffffffffffffffffffffffff1681526020019081526020016000205410158015612c675750600082115b1515612c7257600080fd5b612cc482600460003373ffffffffffffffffffffffffffffffffffffffff1673ffffffffffffffffffffffffffffffffffffffff168152602001908152602001600020546138f390919063ffffffff16565b600460003373ffffffffffffffffffffffffffffffffffffffff1673ffffffffffffffffffffffffffffffffffffffff16815260200190815260200160002081905550612d5982600460008673ffffffffffffffffffffffffffffffffffffffff1673ffffffffffffffffffffffffffffffffffffffff1681526020019081526020016000205461391490919063ffffffff16565b600460008573ffffffffffffffffffffffffffffffffffffffff1673ffffffffffffffffffffffffffffffffffffffff168152602001908152602001600020819055507fddf252ad1be2c89b69c2b068fc378daa952ba7f163c4a11628f55a4df523b3ef338484604051808473ffffffffffffffffffffffffffffffffffffffff1673ffffffffffffffffffffffffffffffffffffffff1681526020018373ffffffffffffffffffffffffffffffffffffffff1673ffffffffffffffffffffffffffffffffffffffff168152602001828152602001935050505060405180910390a16001905092915050565b60096020528060005260406000206000915054906101000a900460ff1681565b600c6020528060005260406000206000915090505481565b6000600780549050905090565b600e602052816000526040600020602052806000526040600020600091509150508060000160009054906101000a900460ff16908060010154905082565b6000600560008473ffffffffffffffffffffffffffffffffffffffff1673ffffffffffffffffffffffffffffffffffffffff16815260200190815260200160002060008373ffffffffffffffffffffffffffffffffffffffff1673ffffffffffffffffffffffffffffffffffffffff16815260200190815260200160002054905092915050565b6000600782815481101515612f6057fe5b906000526020600020900160009054906101000a900473ffffffffffffffffffffffffffffffffffffffff169050919050565b60086020528060005260406000206000915054906101000a900460ff1681565b60065481565b6000806000600e60003373ffffffffffffffffffffffffffffffffffffffff1673ffffffffffffffffffffffffffffffffffffffff16815260200190815260200160002060008581526020019081526020016000206001015411151561301e57600080fd5b600015156015600085815260200190815260200160002060000160009054906101000a900460ff16151514151561305457600080fd5b42600a6000600d600087815260200190815260200160002060009054906101000a900473ffffffffffffffffffffffffffffffffffffffff1673ffffffffffffffffffffffffffffffffffffffff1673ffffffffffffffffffffffffffffffffffffffff1681526020019081526020016000206000600b600087815260200190815260200160002054815260200190815260200160002060050154101515156130fc57600080fd5b600e60003373ffffffffffffffffffffffffffffffffffffffff1673ffffffffffffffffffffffffffffffffffffffff16815260200190815260200160002060008481526020019081526020016000206001015490506000600e60003373ffffffffffffffffffffffffffffffffffffffff1673ffffffffffffffffffffffffffffffffffffffff1681526020019081526020016000206000858152602001908152602001600020600101819055506131c930336064605f6103e88602028115156131c357fe5b046115ba565b5061321b30600d600086815260200190815260200160002060009054906101000a900473ffffffffffffffffffffffffffffffffffffffff16606460056103e886020281151561321557fe5b046115ba565b5060001515600e60003373ffffffffffffffffffffffffffffffffffffffff1673ffffffffffffffffffffffffffffffffffffffff168152602001908152602001600020600085815260200190815260200160002060000160009054906101000a900460ff16151514156132d357806011600085815260200190815260200160002060008282540392505081905550601360008481526020019081526020016000206000815480929190600190039190505550613387565b60011515600e60003373ffffffffffffffffffffffffffffffffffffffff1673ffffffffffffffffffffffffffffffffffffffff168152602001908152602001600020600085815260200190815260200160002060000160009054906101000a900460ff1615151415613386578060126000858152602001908152602001600020600082825401925050819055506014600084815260200190815260200160002060008154809291906001900391905055505b5b6001915050919050565b600042821180156133a457506078420383115b80156133af57508282115b15156133ba57600080fd5b60011515600860003373ffffffffffffffffffffffffffffffffffffffff1673ffffffffffffffffffffffffffffffffffffffff16815260200190815260200160002060009054906101000a900460ff16151514151561341957600080fd5b600660008154809291906001019190505550600c60003373ffffffffffffffffffffffffffffffffffffffff1673ffffffffffffffffffffffffffffffffffffffff16815260200190815260200160002060008154809291906001019190505550600654600a60003373ffffffffffffffffffffffffffffffffffffffff1673ffffffffffffffffffffffffffffffffffffffff1681526020019081526020016000206000600c60003373ffffffffffffffffffffffffffffffffffffffff1673ffffffffffffffffffffffffffffffffffffffff1681526020019081526020016000205481526020019081526020016000206000018190555085600a60003373ffffffffffffffffffffffffffffffffffffffff1673ffffffffffffffffffffffffffffffffffffffff1681526020019081526020016000206000600c60003373ffffffffffffffffffffffffffffffffffffffff1673ffffffffffffffffffffffffffffffffffffffff16815260200190815260200160002054815260200190815260200160002060010190805190602001906135b992919061398d565b5084600a60003373ffffffffffffffffffffffffffffffffffffffff1673ffffffffffffffffffffffffffffffffffffffff1681526020019081526020016000206000600c60003373ffffffffffffffffffffffffffffffffffffffff1673ffffffffffffffffffffffffffffffffffffffff168152602001908152602001600020548152602001908152602001600020600201908051906020019061366092919061398d565b5083600a60003373ffffffffffffffffffffffffffffffffffffffff1673ffffffffffffffffffffffffffffffffffffffff1681526020019081526020016000206000600c60003373ffffffffffffffffffffffffffffffffffffffff1673ffffffffffffffffffffffffffffffffffffffff16815260200190815260200160002054815260200190815260200160002060030160006101000a81548160ff02191690831515021790555082600a60003373ffffffffffffffffffffffffffffffffffffffff1673ffffffffffffffffffffffffffffffffffffffff1681526020019081526020016000206000600c60003373ffffffffffffffffffffffffffffffffffffffff1673ffffffffffffffffffffffffffffffffffffffff1681526020019081526020016000205481526020019081526020016000206004018190555081600a60003373ffffffffffffffffffffffffffffffffffffffff1673ffffffffffffffffffffffffffffffffffffffff1681526020019081526020016000206000600c60003373ffffffffffffffffffffffffffffffffffffffff1673ffffffffffffffffffffffffffffffffffffffff16815260200190815260200160002054815260200190815260200160002060050181905550600c60003373ffffffffffffffffffffffffffffffffffffffff1673ffffffffffffffffffffffffffffffffffffffff16815260200190815260200160002054600b600060065481526020019081526020016000208190555033600d6000600654815260200190815260200160002060006101000a81548173ffffffffffffffffffffffffffffffffffffffff021916908373ffffffffffffffffffffffffffffffffffffffff1602179055506001905095945050505050565b60008083831115151561390557600080fd5b82840390508091505092915050565b600080828401905083811015151561392b57600080fd5b8091505092915050565b81548183558181151161395c5781836000526020600020918201910161395b9190613a0d565b5b505050565b815481835581811511613988578183600052602060002091820191016139879190613a0d565b5b505050565b828054600181600116156101000203166002900490600052602060002090601f016020900481019282601f106139ce57805160ff19168380011785556139fc565b828001600101855582156139fc579182015b828111156139fb5782518255916020019190600101906139e0565b5b509050613a099190613a0d565b5090565b613a2f91905b80821115613a2b576000816000905550600101613a13565b5090565b905600a165627a7a72305820f276eb746d300c50c0792ae41be055791f89c1ce40553d2af700b8a719b7583b0029",
  "source": "pragma solidity ^0.4.0;\r\nlibrary SafeMath \r\n{\r\n    function add(uint a, uint b) internal pure returns (uint) \r\n    {\r\n        uint c;\r\n        c = a + b;\r\n        require(c >= a);\r\n        return c;\r\n    }\r\n    \r\n    function sub(uint a, uint b) internal pure returns (uint) \r\n    {\r\n        require(b <= a);\r\n        uint c;\r\n        c = a - b;\r\n        return c;\r\n    }\r\n    \r\n    function mul(uint a, uint b) internal pure returns (uint) \r\n    {\r\n        uint c;\r\n        c = a * b;\r\n        require(a == 0 || c / a == b);\r\n        return c;\r\n    }\r\n    \r\n    function div(uint a, uint b) internal pure returns (uint) \r\n    {\r\n        require(b > 0);\r\n        uint c;\r\n        c = a / b;\r\n        return c;\r\n    }\r\n    \r\n}\r\n\r\ncontract High_low_2\r\n{\r\n    \r\n    using SafeMath for uint;\r\n    string public symbol;\r\n    string public  name;\r\n    uint8 public decimals;\r\n    uint public _totalSupply;\r\n    mapping(address => uint) balances;\r\n    mapping(address => mapping(address => uint)) allowed;\r\n    \r\n    \r\n    function High_low_2() public payable\r\n    {\r\n        symbol = \"HLT\";\r\n        name = \"High Low Token\";\r\n        decimals = 18;\r\n        _totalSupply = 10000000 * 10**uint(decimals);\r\n        balances[this]= _totalSupply;\r\n    }\r\n\r\n    event Transfer(address indexed_from, address indexed_to, uint256 _value);\r\n    \r\n    event Approval(address indexed_owner, address indexed_spender, uint256 _value);\r\n    \r\n    function totalSupply() public constant returns (uint256) \r\n    {\r\n        return _totalSupply;\r\n    }\r\n\r\n    function balanceOf(address _owner) public constant returns (uint256) \r\n    {\r\n        return balances[_owner];\r\n    }\r\n\r\n    function transfer(address _to, uint256 _value) public payable returns (bool) \r\n    {\r\n        require(balances[msg.sender] >= _value &&  _value > 0);\r\n        balances[msg.sender] = balances[msg.sender].sub(_value);//calling library\r\n        balances[_to] = balances[_to].add(_value);\r\n        Transfer(msg.sender, _to, _value);\r\n        return true;\r\n    }\r\n\r\n    function transferFrom(address _from, address _to, uint256 _value) public payable returns (bool) \r\n    {\r\n        require(balances[_from] >= _value && _value > 0);\r\n        balances[_from] = balances[_from].sub(_value);\r\n        balances[_to] = balances[_to].add(_value);\r\n        Transfer(_from, _to, _value);\r\n        return true;\r\n    }\r\n\r\n    function approve(address _spender, uint256 _value) public payable returns (bool) \r\n    {\r\n        allowed[msg.sender][_spender] = _value;\r\n        Approval(msg.sender, _spender, _value);\r\n        return true;\r\n    }\r\n\r\n    function allowance(address _owner, address _spender) public constant returns (uint256) \r\n    {\r\n        return allowed[_owner][_spender];\r\n    }\r\n    \r\n    \r\n    //high low functionalities start here\r\n    \r\n    event Transfer_amount(address _sender, address _receiver, uint256 _transfer_amount);\r\n    \r\n    function buy_token() public payable returns(bool)\r\n    {\r\n        return transferFrom(this, msg.sender, msg.value*1000);\r\n    }\r\n    \r\n    function exchange_token(uint256 tokens_to_exchange_in_wei) public payable returns(bool)\r\n    {\r\n        transferFrom(msg.sender, this, tokens_to_exchange_in_wei*1000);\r\n        msg.sender.transfer(tokens_to_exchange_in_wei);\r\n        Transfer_amount(this, msg.sender, tokens_to_exchange_in_wei);\r\n        return true;\r\n    }\r\n    \r\n    function account_token_balance() public constant returns(uint256)\r\n    {\r\n        return balanceOf(msg.sender);\r\n    }\r\n    \r\n    function contract_ether_balance() public constant returns(uint256)\r\n    {\r\n        return address(this).balance;\r\n    }\r\n    \r\n    function contract_token_balance() public constant returns(uint256)\r\n    {\r\n        return balanceOf(this);       \r\n    }\r\n    \r\n    uint256 public _bet_id;\r\n    \r\n    address[] public broker_addresses;\r\n\r\n    mapping(address=>bool) public is_broker;\r\n    \r\n    mapping(address=>bool) public is_better;\r\n    \r\n    struct bet_details\r\n    {\r\n        uint256 bet_id;\r\n        string team_1;\r\n        string team_2;\r\n        bool team_selecetd;\r\n        uint256 start_time;\r\n        uint256 expiry_time;\r\n    }\r\n    mapping(address=>mapping(uint256=>bet_details)) public bet_details_map; // key 1: broker_address key2:broker_bets(iterate this)\r\n    \r\n    mapping(uint256=>uint256) public index_of_broker_bet;//key:bet_id  value: index_of_broker_bet(broker_created_bets)\r\n    \r\n    mapping(address=>uint256) public broker_created_bets;// total bet created by that particular broker (5)\r\n    \r\n    mapping(uint256=>address) public bet_creator;\r\n    \r\n    struct better\r\n    {\r\n        bool option;\r\n        uint256 betted_tokens;\r\n    }\r\n    mapping(address=>mapping(uint256=>better)) public game_id_map_better;//key: index  value:betting     \r\n    \r\n    mapping(uint256=>address[]) public betters_of_bet_id;\r\n    \r\n    mapping(address=>uint256[]) public better_betted_bets;\r\n    \r\n    mapping(uint256=>uint256) public bet_tokens_for_low;\r\n    \r\n    mapping(uint256=>uint256) public bet_tokens_for_high; \r\n    \r\n    mapping(uint256=>uint256) public low_betters;\r\n    \r\n    mapping(uint256=>uint256) public high_betters;\r\n\r\n    function get_better_betted_bets_length() public constant returns(uint256)\r\n    {\r\n        return better_betted_bets[msg.sender].length;\r\n    }\r\n    \r\n    struct bet_status\r\n    {\r\n        bool is_bet_stopped;\r\n        bool is_result_published; //to check is_result_published\r\n        uint256 final_option; //10,11,12 \r\n    }\r\n    mapping(uint256=>bet_status) public bet_status_map; \r\n    \r\n    function add_broker() public payable returns(bool)\r\n    {\r\n        require(!check_broker());\r\n        require(length_of_broker_addresses()<6);\r\n        broker_addresses.push(msg.sender);\r\n        is_broker[msg.sender]=true;\r\n        return true;\r\n    }\r\n    \r\n    function check_broker() public constant returns(bool) // is_broker\r\n    {\r\n        return is_broker[msg.sender];\r\n    }\r\n    \r\n    function length_of_broker_addresses() public constant returns(uint256)\r\n    {\r\n        return broker_addresses.length;\r\n    }\r\n    \r\n    function get_broker_address(uint256 index) public constant returns(address)\r\n    {\r\n        return broker_addresses[index]; //index start from 0\r\n    }\r\n    \r\n    function check_better() public constant returns(bool)\r\n    {\r\n        return is_better[msg.sender];    \r\n    }\r\n    \r\n    function broker_set_game(string _team_1, string _team_2, bool _team_selecetd, uint256 _start_time, uint256 _expiry_time) public payable returns(bool) // newbet, new_game_id\r\n    {\r\n        require(_expiry_time>now && _start_time>(now-2 minutes) && _expiry_time>_start_time);\r\n        require(is_broker[msg.sender]==true);\r\n        _bet_id++;\r\n        broker_created_bets[msg.sender]++;\r\n        bet_details_map[msg.sender][broker_created_bets[msg.sender]].bet_id=_bet_id;\r\n        bet_details_map[msg.sender][broker_created_bets[msg.sender]].team_1=_team_1;\r\n        bet_details_map[msg.sender][broker_created_bets[msg.sender]].team_2=_team_2;\r\n        bet_details_map[msg.sender][broker_created_bets[msg.sender]].team_selecetd=_team_selecetd;\r\n        bet_details_map[msg.sender][broker_created_bets[msg.sender]].start_time=_start_time;\r\n        bet_details_map[msg.sender][broker_created_bets[msg.sender]].expiry_time=_expiry_time;\r\n        index_of_broker_bet[_bet_id]=broker_created_bets[msg.sender];\r\n        bet_creator[_bet_id]=msg.sender;\r\n        return true;\r\n    }\r\n    \r\n    function betting(uint256 bet_id,uint256 _choice,uint256 _bet_tokens_in_wei) public payable returns(bool) // is_bet_success \r\n    {\r\n        require(_bet_tokens_in_wei>0);\r\n        require(balanceOf(msg.sender)>=_bet_tokens_in_wei*1000);\r\n        require(bet_details_map[bet_creator[bet_id]][index_of_broker_bet[bet_id]].expiry_time>=now);\r\n        require(bet_status_map[bet_id].is_bet_stopped==false);\r\n        require(game_id_map_better[msg.sender][bet_id].betted_tokens==0);\r\n        require(_choice==1||_choice==0);\r\n        \r\n        transferFrom(msg.sender, this, _bet_tokens_in_wei*1000);\r\n        game_id_map_better[msg.sender][bet_id].betted_tokens=_bet_tokens_in_wei;\r\n        \r\n        if(_choice==0)\r\n        {\r\n            game_id_map_better[msg.sender][bet_id].option=false;\r\n            bet_tokens_for_low[bet_id]+=_bet_tokens_in_wei;\r\n            low_betters[bet_id]++;\r\n        }\r\n        else if(_choice==1)\r\n        {\r\n            game_id_map_better[msg.sender][bet_id].option=true;\r\n            bet_tokens_for_high[bet_id]+=_bet_tokens_in_wei;\r\n            high_betters[bet_id]++;\r\n        }\r\n        \r\n        betters_of_bet_id[bet_id].push(msg.sender);\r\n        \r\n        better_betted_bets[msg.sender].push(bet_id);\r\n        if(is_better[msg.sender]==false)\r\n        is_better[msg.sender]=true;//added as a user\r\n        \r\n        return true;\r\n    }\r\n    \r\n    function broker_stop_bet(uint256 bet_id) public payable returns(bool) //is_bet_stopped\r\n    {\r\n        bet_status_map[bet_id].is_bet_stopped=true;\r\n        return true;\r\n    }\r\n    \r\n    function better_increase_bet_tokens(uint256 bet_id,uint256 _increase_tokens_in_wei) public payable returns(bool)// is_increase_success\r\n    {\r\n        require(game_id_map_better[msg.sender][bet_id].betted_tokens>0);\r\n        require(bet_status_map[bet_id].is_bet_stopped==false);\r\n        require(bet_details_map[bet_creator[bet_id]][index_of_broker_bet[bet_id]].expiry_time>=now);\r\n        require(balanceOf(msg.sender)>=_increase_tokens_in_wei*1000);\r\n        transferFrom(msg.sender,this,_increase_tokens_in_wei*1000);\r\n        game_id_map_better[msg.sender][bet_id].betted_tokens+=_increase_tokens_in_wei;\r\n        \r\n        if(game_id_map_better[msg.sender][bet_id].option==false)\r\n            bet_tokens_for_low[bet_id]+=_increase_tokens_in_wei;\r\n        else if(game_id_map_better[msg.sender][bet_id].option==true)\r\n            bet_tokens_for_high[bet_id]+=_increase_tokens_in_wei;\r\n        \r\n        return true;\r\n    }\r\n    \r\n    function better_exit_bet(uint256 bet_id) public payable returns(bool)\r\n    {\r\n        require(game_id_map_better[msg.sender][bet_id].betted_tokens>0);\r\n        require(bet_status_map[bet_id].is_bet_stopped==false);\r\n        require(bet_details_map[bet_creator[bet_id]][index_of_broker_bet[bet_id]].expiry_time>=now);\r\n        \r\n        uint256 tokens_betted=game_id_map_better[msg.sender][bet_id].betted_tokens;\r\n        game_id_map_better[msg.sender][bet_id].betted_tokens=0;\r\n        transferFrom(this, msg.sender, (tokens_betted*1000*95)/100);\r\n        transferFrom(this, bet_creator[bet_id], (tokens_betted*1000*5)/100);\r\n        \r\n        if(game_id_map_better[msg.sender][bet_id].option==false)\r\n        {\r\n            bet_tokens_for_low[bet_id]-=tokens_betted;\r\n            low_betters[bet_id]--;\r\n        }\r\n        else if(game_id_map_better[msg.sender][bet_id].option==true)\r\n        {\r\n            bet_tokens_for_high[bet_id]+=tokens_betted;\r\n            high_betters[bet_id]--;\r\n        }\r\n        return true;    \r\n    }\r\n    function broker_setting_result_and_distribute_money(uint256 bet_id,uint256 result_options) public payable returns(bool)\r\n    {\r\n        require(bet_creator[bet_id]==msg.sender);\r\n        require(bet_details_map[bet_creator[bet_id]][index_of_broker_bet[bet_id]].expiry_time<=now);\r\n        require(bet_status_map[bet_id].is_result_published==false);\r\n        require(result_options<=12 && result_options>=10);  //10 ==low  11==high  12==draw\r\n        \r\n        \r\n        bet_status_map[bet_id].is_result_published=true;\r\n        bet_status_map[bet_id].final_option=result_options;\r\n        //bool result_option;\r\n        \r\n        uint256 count = betters_of_bet_id[bet_id].length;\r\n        \r\n        if(result_options==12)\r\n        {\r\n            //draw\r\n            while(count>0)\r\n            {\r\n                if(game_id_map_better[betters_of_bet_id[bet_id][count-1]][bet_id].betted_tokens>0)\r\n                {\r\n                    transferFrom(this, betters_of_bet_id[bet_id][count-1], game_id_map_better[betters_of_bet_id[bet_id][count-1]][bet_id].betted_tokens*1000);\r\n                }\r\n                count--;\r\n            }\r\n            return true;\r\n        }\r\n        else if(result_options==11)\r\n        {\r\n            //high setted as result \r\n            \r\n            //uint256 low_high_ratio = ; \r\n            while(count>0)\r\n            {\r\n                if(game_id_map_better[betters_of_bet_id[bet_id][count-1]][bet_id].betted_tokens>0 && game_id_map_better[betters_of_bet_id[bet_id][count-1]][bet_id].option==true)\r\n                {\r\n                    //betted tokens:   game_id_map_better[betters_of_bet_id[bet_id][count-1]][bet_id].betted_tokens\r\n                    //low bet token:   bet_tokens_for_low[bet_id]\r\n                    //high bet tokens: bet_tokens_for_high[bet_id]\r\n                    //(game_id_map_better[betters_of_bet_id[bet_id][count-1]][bet_id].betted_tokens*bet_tokens_for_low[bet_id])\r\n                    //((game_id_map_better[betters_of_bet_id[bet_id][count-1]][bet_id].betted_tokens*bet_tokens_for_low[bet_id])/bet_tokens_for_high[bet_id])\r\n                    //(game_id_map_better[betters_of_bet_id[bet_id][count-1]][bet_id].betted_tokens+((game_id_map_better[betters_of_bet_id[bet_id][count-1]][bet_id].betted_tokens*bet_tokens_for_low[bet_id])/bet_tokens_for_high[bet_id]))\r\n                    //(1000*(game_id_map_better[betters_of_bet_id[bet_id][count-1]][bet_id].betted_tokens+((game_id_map_better[betters_of_bet_id[bet_id][count-1]][bet_id].betted_tokens*bet_tokens_for_low[bet_id])/bet_tokens_for_high[bet_id])))\r\n                    transferFrom(this, betters_of_bet_id[bet_id][count-1], (1000*(game_id_map_better[betters_of_bet_id[bet_id][count-1]][bet_id].betted_tokens+((game_id_map_better[betters_of_bet_id[bet_id][count-1]][bet_id].betted_tokens*bet_tokens_for_low[bet_id])/bet_tokens_for_high[bet_id]))));\r\n                    //game_id_map_better[betters_of_bet_id[bet_id][count-1]][bet_id].tokens_won=((game_id_map_better[betters_of_bet_id[bet_id][count-1]][bet_id].betted_tokens*bet_tokens_for_low[bet_id])/bet_tokens_for_high[bet_id]);\r\n                }\r\n                count--;\r\n            }\r\n            return true;\r\n        }\r\n        \r\n        else if(result_options==10)\r\n        {\r\n            //low setted as result \r\n            \r\n            while(count>0)\r\n            {\r\n                if(game_id_map_better[betters_of_bet_id[bet_id][count-1]][bet_id].betted_tokens>0 && game_id_map_better[betters_of_bet_id[bet_id][count-1]][bet_id].option==false)\r\n                {\r\n                    //betted tokens:   game_id_map_better[betters_of_bet_id[bet_id][count-1]][bet_id].betted_tokens\r\n                    //low bet token:   bet_tokens_for_low[bet_id]\r\n                    //high bet tokens: bet_tokens_for_high[bet_id]\r\n                    //(game_id_map_better[betters_of_bet_id[bet_id][count-1]][bet_id].betted_tokens*bet_tokens_for_high[bet_id])\r\n                    //((game_id_map_better[betters_of_bet_id[bet_id][count-1]][bet_id].betted_tokens*bet_tokens_for_high[bet_id])/bet_tokens_for_low[bet_id])\r\n                    //(game_id_map_better[betters_of_bet_id[bet_id][count-1]][bet_id].betted_tokens+((game_id_map_better[betters_of_bet_id[bet_id][count-1]][bet_id].betted_tokens*bet_tokens_for_high[bet_id])/bet_tokens_for_low[bet_id]))\r\n                    transferFrom(this, betters_of_bet_id[bet_id][count-1], (1000*(game_id_map_better[betters_of_bet_id[bet_id][count-1]][bet_id].betted_tokens+((game_id_map_better[betters_of_bet_id[bet_id][count-1]][bet_id].betted_tokens*bet_tokens_for_high[bet_id])/bet_tokens_for_low[bet_id])))); \r\n                    //game_id_map_better[betters_of_bet_id[bet_id][count-1]][bet_id].tokens_won=((game_id_map_better[betters_of_bet_id[bet_id][count-1]][bet_id].betted_tokens*bet_tokens_for_high[bet_id])/bet_tokens_for_low[bet_id]);\r\n                }\r\n                count--;\r\n            }\r\n            return true;\r\n        }\r\n        return true;\r\n    }\r\n}",
  "sourcePath": "D:\\highlowversion2\\High-Low-V2\\contracts\\High_low_2.sol",
  "compiler": {
    "name": "solc",
    "version": "0.4.19+commit.c4cbbb05.Emscripten.clang"
  },
  "schemaVersion": "2.0.0",
  "updatedAt": "2018-04-24T09:27:32.796Z"
}